:020000040800F2
:10000000281D01205D0300083B3F00081937000848
:10001000393F0008F50D0008AD4B00080000000056
:100020000000000000000000000000009D02000829
:10003000E50F000800000000F902000891430008E5
:1000400077030008770300087703000877030008A8
:100050007703000877030008770300087703000898
:10006000770300087703000877030008050F0008EE
:10007000110F0008770300087703000877030008D2
:10008000770300081D0F00087703000877030008B6
:10009000250E0008310E00087703000877030008DA
:1000A0007703000877030008770300087703000848
:1000B0007703000877030008770300087703000838
:1000C0007703000877030008770300087703000828
:1000D0007703000877030008770300087703000818
:1000E0007703000877030008770300087703000808
:1000F00077030008770300087703000877030008F8
:1001000077030008770300087703000877030008E7
:1001100077030008770300087703000861440008AC
:1001200077030008290F0008770300087703000809
:1001300077030008770300087703000877030008B7
:100140006D0E0008790E0008770300087703000899
:1001500077030008350F000877030008954B000867
:100160007703000877030008770300087703000887
:1001700077030008770300087703000800000000F9
:100180007703000877030008DD460008E946000809
:100190007703000877030008770300087703000857
:1001A00000000000000000007703000800F002F8E3
:1001B00000F064F80AA090E8000C82448344AAF19D
:1001C0000107DA4501D100F059F8AFF2090EBAE89B
:1001D0000F0013F0010F18BFFB1A43F0010318477B
:1001E000388E0000588E000010F8013B0A4413F0CE
:1001F000030408BF10F8014B1D1108BF10F8015B84
:10020000641E05D010F8016B641E01F8016BF9D172
:10021000002D15D010F8014B03F00C030C2BA1EBB3
:1002200004040ABF10F8013BA4EB8314A4EB0324DD
:1002300005F1010314F8016B5B1E01F8016BF9D5A0
:10024000914238BF10F8013BD1D3704700230024FE
:1002500000250026103A28BF78C1FBD8520728BFD6
:1002600030C148BF0B6070471FB508F0ACFD9DE87A
:10027000030000F0B1F91FBD10B510BD00F03EFA4B
:100280001146FFF7F1FF06F07FFF00F05CFA03B4C0
:10029000FFF7F2FF03BC00F08DFA00002C4B196849
:1002A0000868B0E8F04F80F30988BFF36F8F4FF014
:1002B000000080F3118870470000000008480068C3
:1002C000006880F308884FF0000080F3148862B65D
:1002D00061B6BFF34F8FBFF36F8F00DF00BF00BF6A
:1002E00008ED00E0DFF80C00016841F470010160E6
:1002F000704700BF88ED00E0EFF30980BFF36F8F18
:10030000134B1A681EF0100F08BF20ED108A20E969
:10031000F04F106009B44FF0500080F31188BFF324
:100320004F8FBFF36F8F07F03FFD4FF0000080F35A
:10033000118809BC19680868B0E8F04F1EF0100F6A
:1003400008BFB0EC108A80F30988BFF36F8F704745
:1003500030730020EFF305807047000009488047A4
:1003600009480047FEE7FEE7FEE7FEE7FEE7FEE797
:10037000FEE7FEE7FEE7FEE704480549054A064BAF
:100380007047000051440008AD01000828BD00205E
:10039000281D012028ED002028ED002070B506461C
:1003A00000F0FEF8056806F10B0020F00704B442E7
:1003B0009CBF002070BD2B466A68BAB11068A0428D
:1003C00010D304F1080188423CBF5068586007D33D
:1003D0005168101941601168091B01605860146070
:1003E000101D70BD13465268002AE7D121462846E9
:1003F00000F0DEF80028DED170BD53EA020C00F0F8
:1004000069802DE9F04B4FF00006002B1FBFB3FAB7
:1004100083F503FA05F424FA05F65E4012BF16438D
:10042000B2FA82F502FA05F4C5F120051EBF22FAE0
:1004300005FC44EA0C04203556EA044C4FEA144407
:1004400018BF641C4FF000084FF00009904271EB98
:10045000030C39D3002919BFB1FA81F701FA07F665
:10046000B0FA80F700FA07F6C7F120071EBF20FA9E
:1004700007FC46EA0C062037B6FBF4FCA7EB0507A1
:10048000103F07F01F0BCBF120060CFA0BFB2CFAE8
:1004900006F644BFB3460026202FA4BF5E464FF0A9
:1004A000000B5BEA060C08BF4FF0010B19EB0B09C0
:1004B000ABFB027C48EB0608C01B06FB02CC0BFB27
:1004C00003CC71EB0C01C1E70B460246414648469E
:1004D000BDE8F08B13B54FF000004FF00001AFF313
:1004E0000080BDE81C40704710B5203AC0F00B807A
:1004F000B1E81850203AA0E81850B1E81850A0E828
:100500001850BFF4F5AF5FEA027C24BFB1E8185081
:10051000A0E8185044BF18C918C0BDE810405FEAF1
:10052000827C24BF51F8043B40F8043B08BF70476D
:10053000D20728BF31F8023B48BF11F8012B28BF72
:1005400020F8023B48BF00F8012B70474FF0000233
:1005500000B5134694469646203922BFA0E80C50B9
:10056000A0E80C50B1F12001BFF4F7AF090728BF94
:10057000A0E80C5048BF0CC05DF804EB890028BF10
:1005800040F8042B08BF704748BF20F8022B11F039
:10059000804F18BF00F8012B7047704770477047B5
:1005A00000487047CCBC00207047704770477047C8
:1005B00038B504460A4600206946AFF3008000289B
:1005C00008BF38BD02460099204600F075F80120AA
:1005D00038BD012000F08AB8F8B5AFF300800546B9
:1005E00000200C46102000BF0646A819A0420DD9D5
:1005F000324669460020AFF30080070008BF00F0D4
:1006000075F80098A04218BF0546C419FFF7C8FF47
:1006100005600746F01D20F007004619284600F047
:100620000AF8B44208BFF8BDA21B31463868BDE8DD
:10063000F84000F041B800210160C0E901107047A6
:100640001020704770B50446051FFFF7A9FF00682A
:10065000002C14BF446870BD002C18BFAC423CBFD6
:1006600020466468F8D301680A18AA4218BF45609A
:1006700003D12A6805461144016028684119A14246
:100680001CBF6C6070BD61686960216808442860A7
:1006900070BD10B500F00CF8006810BD10B5044630
:1006A00000F006F8046010BD00487047C4BC00208C
:1006B00000487047C4BC0020034640688C460028B0
:1006C00018BF88423CBF03464068F8D318681844F6
:1006D000884207D00CF1030020F00700001D411AEA
:1006E000521A0146081D0A60FFF7ACBF10B500F0B2
:1006F00039F8BDE8104000F02FB870477546FFF795
:10070000D3FFAE4605006946534620F007008546F4
:1007100018B020B5FFF730FEBDE820404FF00006CE
:100720004FF000074FF000084FF0000B21F00701D9
:10073000AC46ACE8C009ACE8C009ACE8C009ACE81C
:10074000C0098D46704710B50446AFF300802046BF
:10075000BDE81040FFF79BBD002801D000F02AB88B
:100760007047000010B5012805D0002103A000F05B
:1007700027F8012010BD09A1F8E7000053494752AE
:10078000544D454D3A204F7574206F662068656161
:1007900070206D656D6F7279000000003A20486529
:1007A0006170206D656D6F727920636F7272757004
:1007B0007465640001491820ABBEFEE72600020004
:1007C00070B505460C460A2000E06D1C00F011F8DB
:1007D00035B128780028F8D102E0641C00F009F84F
:1007E00014B120780028F8D1BDE870400A20AFF39A
:1007F000008008B569468DF800000320ABBE08BD37
:1008000010B504F007FB04F0E1FA044C606004F05A
:1008100053FE606804F0CCF9206010BD0000002099
:100820001948DFED1A0A4268083092ED120A20EEEC
:10083000200ABDEEC00A10EE101A017010EE101A58
:10084000090A417010EE101A090C817010EE101A8E
:10085000090EC17092ED130A20EE200ABDEEC00A07
:1008600010EE101A017110EE101A090A417110EE03
:10087000101A090C817110EE101A090EC17101468F
:100880000822034800F0B4BA0000002000007A44B7
:10089000D47C00200648406890F84110032903D01A
:1008A000042901D0052901D103F0FDBC70470000E7
:1008B00000000020D248AA21D24B0170552141707E
:1008C000196831F8502F8270120AC2708A7802714A
:1008D000002242718A888271120AC271C98801722B
:1008E000090A41725968CA6BD2ED060A9FEDC60A21
:1008F00060EE800AFDEEE00A10EE903A8372D2EDCF
:10090000060A60EE800AFDEEE00A10EE903A1B0A3D
:10091000C372D2ED060A60EE800AFDEEE00A10EE28
:10092000903A1B0C0373D2ED060A60EE800AFDEECE
:10093000E00A10EE903A1B0E43730B68D3ED070AE2
:1009400060EE800AFDEEE00A10EE903A83730B68C9
:10095000D3ED070A60EE800AFDEEE00A10EE903A51
:100960001B0AC3730B68D3ED070A60EE800AFDEE25
:10097000E00A10EE903A1B0C03740B68D3ED070AE3
:1009800060EE800AFDEEE00A10EE903A1B0E437412
:100990004B68D3ED070A60EE800AFDEEE00A10EE28
:1009A000903A83744B68D3ED070A60EE800AFDEE3F
:1009B000E00A10EE903A1B0AC3744B68D3ED070AA5
:1009C00060EE800AFDEEE00A10EE903A1B0C037513
:1009D0004B68D3ED070A60EE800AFDEEE00A10EEE8
:1009E000903A1B0E43758B68D3ED070A60EE800AC0
:1009F000FDEEE00A10EE903A83758B68D3ED070A9E
:100A000060EE800AFDEEE00A10EE903A1B0AC37514
:100A10008B68D3ED070A60EE800AFDEEE00A10EE67
:100A2000903A1B0C03768B68D3ED070A60EE800AC0
:100A3000FDEEE00A10EE903A1B0E4376CB68D3ED44
:100A4000070A60EE800AFDEEE00A10EE903A837627
:100A5000CB68D3ED070A60EE800AFDEEE00A10EEE7
:100A6000903A1B0AC376CB68D3ED070A60EE800A82
:100A7000FDEEE00A10EE903A1B0C0377CB68D3ED45
:100A8000070A60EE800AFDEEE00A10EE903A1B0EB7
:100A900043770B69D3ED070A60EE800AFDEEE00AAA
:100AA00010EE903A83770B69D3ED070A60EE800A67
:100AB000FDEEE00A10EE903A1B0AC3770B69D3ED06
:100AC000070A60EE800AFDEEE00A10EE903A1B0C79
:100AD00080F820300B69D3ED070A60EE800AFDEE46
:100AE000E00A10EE903A1B0E80F82130D2ED070A92
:100AF00060EE800AFDEEE00A10EE903A80F82230B7
:100B0000D2ED070A60EE800AFDEEE00A10EE903AA0
:100B10001B0A80F82330D2ED070A60EE800AFDEE52
:100B2000E00A10EE903A1B0C80F82430D2ED070A50
:100B300060EE800AFDEEE00A10EE903A1B0E80F89F
:100B40002530D2ED080A60EE800AFDEEE00A10EED4
:100B5000903A80F82630D2ED080A60EE800AFDEE69
:100B6000E00A10EE903A1B0A80F82730D2ED080A0E
:100B700060EE800AFDEEE00A10EE903A1B0C80F861
:100B80002830D2ED080A60EE800AFDEEE00A10EE91
:100B9000903A1B0E80F82930D2ED090A60EE800AE7
:100BA000FDEEE00A10EE903A80F82A30D2ED090A04
:100BB00060EE800AFDEEE00A10EE903A1B0A80F823
:100BC0002B30D2ED090A60EE800AFDEEE00A10EE4D
:100BD000903A1B0C80F82C30D2ED090A20EE800AE6
:100BE000BDEEC00A10EE102A120E80F82D2091F8EA
:100BF000451080F82E1001462F22044800F0F8B866
:100C0000987300200000002000007A44647D0020DA
:100C100010B504F041F803F0F9FFBDE8104004F00E
:100C200055B80000054810B5406804F089F804F094
:100C300027FCBDE8104004F03DB900000000002092
:100C4000F8B50A4C0E0A069D26706170110AA17053
:100C5000E270190A21716371290AA1712246E571B6
:100C60006B4602F1100100F0E3F9F8BD100000201E
:100C7000F8B50A4C0E0A069D26706170110AA17023
:100C8000E270190A21716371290AA1712246E57186
:100C90006B4602F1200100F0CBF9F8BD18000020EE
:100CA00010B500F0EFF806F0A1F800F0B5F800F08C
:100CB00079F8BDE8104000F001B8000010B53C2103
:100CC000104801F073FF3C210F4801F06FFF3C21F9
:100CD0000E4801F06BFF3C210D4801F067FF002139
:100CE0000C4802F017F904210A4802F013F9082110
:100CF000084802F00FF9BDE810400C21054802F049
:100D000009B900006C7B0020B47B0020FC7B002034
:100D1000447C00208C7C002038B5054600680168C2
:100D2000C90622D5016840680090284602F062F9A1
:100D30000E4885420BD10E4C201D04F063F9201D96
:100D400003F072FFFF22211D284602F041FC0948F2
:100D500085420AD10848044602F0F4FC21462846A0
:100D6000BDE83840FF2202F033BC38BD647D00206E
:100D70005C7400201C7D00206475002010B50446C2
:100D80000648844201D1FFF7C7FF0548844203D1DA
:100D9000BDE81040FFF7C0BF10BD0000647D00201B
:100DA0001C7D002070B50F4D0D48002428600E48B2
:100DB000C5F8040104EB841055F820100968CA68CE
:100DC00042F01002CA6005EB800155F82000FF22B6
:100DD000091D02F0FDFB641CE4B2022CEAD370BDD5
:100DE000647D00205C7400201C7D002002F000BCAB
:100DF00002F04EBCFEE7000070B505462020FFF76C
:100E0000CDFA04462021FFF7A1FB024840F8254017
:100E1000204670BD4874002014210148FFF796BB9E
:100E200048740020014800F06CBA0000C47A002029
:100E3000014800F066BA0000C47A00200A4AA0F215
:100E4000012005280FD2DFE800F0030507090B0099
:100E5000106806E0506804E0906802E0D06800E0A6
:100E6000106905F06DBC704748740020014800F01F
:100E700048BA0000EC7A0020014800F042BA0000B5
:100E8000EC7A002010B58AB000200121CDE90601DE
:100E90000891059004900090019002900E24039018
:100EA00069460994154800F02BF908B100F09BF849
:100EB00069461348059400F023F908B100F093F84F
:100EC0000E4800F059FC08B100F08DF80C4800F015
:100ED00053FC08B100F087F80221084800F096F8AA
:100EE00008B100F080F80221054800F08FF80028D2
:100EF00001D000F078F80AB010BD0000C47A0020DC
:100F0000EC7A0020014800F0C5BC00000C7E0020F7
:100F1000014800F0BFBC0000AC7D0020014800F09B
:100F2000B9BC00006C7E0020014800F0B3BC00009A
:100F30002C7F0020014800F0ADBC0000CC7E0020DA
:100F400001681823CAB2103AB2FBF3F2054B6FF3F3
:100F50000901032A9B5CC36500D9091D8165084608
:100F600070470000B48E000810B5014600208B6960
:100F70008A6A4FF0C07453B1B3F5005F15D072B1F7
:100F8000012A0CD0022A0AD0032A09D104E01AB19E
:100F9000012A06D0022A03D1C96AC90100D501205D
:100FA00010BDC96AA142FAD010BD002AF7D0012AAB
:100FB000F2D0022AF3D0032AF3D010BD30B5046872
:100FC000256825F480252560046863608368402BCC
:100FD000036803D099600068C26030BD9A60006801
:100FE000C16030BD704772B6FEE70000024940F2B2
:100FF000DC500860704700003408004002494FF49C
:10100000FA600860704700003408004090F8202023
:10101000012A07D0022A05D0416A41F480214162A9
:1010200001207047006842690A434261002070470E
:10103000F0B590F820500468A468012D05D0022D69
:1010400003D0416A41F4802157E014F0406F01D190
:10105000E5004FD5C4F301640125A5401D608D68EE
:101060004FF4C0739DB1CE6835434E6845EAC6055E
:10107000066803EB0417F5514FF4C275076805EBDA
:1010800004150E697E51097D012905D009E00E88FD
:10109000CD6845EA4655EBE701684E5946F480763F
:1010A0004E511179D579567941EA056195792D042A
:1010B00045EA062529434FF4C676056806EB041673
:1010C000A9511178D57841EA0561957852782D04B7
:1010D00045EA022211434FF4C475026805EB04157A
:1010E0005151006803EB0411425842F00102425092
:1010F0000020F0BD416A41F4001141620120F0BDC1
:1011000010B590F82020012A07D0022A05D0416AA4
:1011100041F480214162012010BD3B48D0F80022FB
:1011200042F00102C0F80022D0F8002222F47C52E2
:10113000C0F80022D0F800224B6A42EA0322C0F82D
:1011400000220A7D02F01F0301229A40D0F81C32CF
:101150009343C0F81C32CB69B3B9D0F80C32934337
:10116000C0F80C328C894B6864F31F434C6900EB68
:10117000C404C4F840320C890B6864F31F434C6903
:1011800000EBC404C4F84432CB69012B16D1D0F86B
:101190000C321343C0F80C320C884B6864F31F43C5
:1011A0004C6900EBC404C4F840320C89CB6864F38A
:1011B0001F434C6900EBC404C4F844328B69002B14
:1011C000D0F804320ED01343C0F804320B69002B60
:1011D000D0F8143208D01343C0F81432096A012938
:1011E00004D008E09343EFE79343F5E7D0F81C12EF
:1011F0001143C0F81C12D0F8001221F00101C0F810
:101200000012002010BD000000640040704770B55F
:1012100090F82040012C05D0022C03D0416A41F403
:10122000802128E0046809B32469A40720D04FF482
:10123000D874056804EB01142D5915F00405956068
:1012400005682D591AD0ED08556005682C5904F031
:101250000204D4604FF4DA74056804EB01142E59CB
:1012600006F00F06082E0CD308250DE0E468DCE735
:10127000416A41F400114162012070BD6D0D15609D
:10128000E3E72D5905F00F05156105682D59C5F3E4
:101290000725956105682C59240C54614FF4DC72C4
:1012A000046802EB0112A4581C700468A458240AB4
:1012B0005C700468A458240C9C700468A258120E38
:1012C000DA704FF4DE72046802EB0112A4581C714C
:1012D0000468A458240A5C710468A458240C9C7106
:1012E0000468A258120EDA71006829B1016941F050
:1012F00020010161002070BDC16841F02001C16082
:10130000F8E72DE9F05F0546006800244669D0F84B
:1013100004908768D0F80CB0D0F810A0D0F81880EE
:10132000F10748D0F90714D001218160B80703D52F
:10133000284600F04EFA0CE0780702D54FF400641E
:1013400007E0380702D54FF4805402E0284600F049
:101350003FFAF80516D529684FF480708860B80503
:1013600003D5284600F037FA0CE0780502D544F49E
:10137000005407E0380502D544F4804402E02846D2
:1013800000F028FAF80316D529684FF480308860F9
:10139000B80303D5284600F020FA0CE0780302D504
:1013A00044F4004407E0380302D544F4803402E0FA
:1013B000284600F011FA300707D55FEACB6004D564
:1013C0002968102044F40074C86070074FF00807C3
:1013D00007D55FEA0B7004D52868C760284600F07F
:1013E000A9F9B00706D52868C068800702D028464A
:1013F00000F0A2F9700607D55FEACA6004D5296833
:10140000102044F480640861B00607D55FEA0A70D2
:1014100004D528680761284600F0AAF9F00606D529
:1014200028680069800702D0284600F0A2F9B003BE
:1014300008D55FEAC96005D52968102048602846AC
:1014400000F098F9F00307D55FEA097004D5286821
:101450004760284600F0C2F9300446D55FEA49707B
:1014600040D5F00504D55FEAC87001D044F001040E
:10147000B00504D55FEA887001D544F00204700518
:1014800004D55FEA487001D544F00404300529D53D
:1014900018F0700F26D008F07000402815D006DC38
:1014A000102809D020280AD0302816D10AE0502868
:1014B0000ED0602811D10EE044F008040DE044F095
:1014C00010040AE044F0200407E044F0400404E083
:1014D00044F0800401E044F480742868816921F0BC
:1014E00070018161296804204860002C05D0686A79
:1014F000204368622846FFF789FEBDE8F09F70B57B
:10150000040003D094F8200010B104E0012070BD65
:10151000204600F081F82068016841F00101016077
:1015200000F05CFC0546052604E000F057FC401B7B
:101530000A2811D820684068C007F6D020680168E2
:1015400021F00201016000F049FC05460BE000F0CB
:1015500045FC401B0A2806D9606A40F400306062EE
:1015600084F82060D2E7206840688007EFD4207EAE
:101570000128206801683DD021F080010160607E73
:1015800001282068016838D021F040010160A07E68
:1015900001282068016833D021F020010160E07E3D
:1015A0000128206801682ED041F010010160207FE1
:1015B00001282068016829D021F008010160607FBE
:1015C00001282068016824D021F004010160D4E9D9
:1015D00002010843D4E90412114308436168491E1B
:1015E00008432168C86100206062012084F820005F
:1015F000002070BD41F08001C0E741F04001C5E727
:1016000041F02001CAE721F01001CFE741F00801C5
:10161000D4E741F00401D9E7F0B587B004461421BE
:101620006846FEF793FF3E4B3E48DFF8F0E019684E
:10163000D4F800C03B4A03250226092710300024B5
:10164000491CF4452AD11960012907D1016841F0EC
:1016500000710160006800F000700590106840F0B3
:10166000080010601068CDE9005600F00800CDE9D0
:10167000047069462C48CDE9024500F08FFA00223B
:101680000521142000F054FC142000F043FC00223B
:101690000521152000F04CFC15203BE0DFF88CE024
:1016A000F44539D1D0F800C04CF0806CC0F800C0CF
:1016B000D0F800C001290CF0806CCDF814C019607E
:1016C00007D1016841F000710160006800F000700E
:1016D0000590106840F002001060106802AB00F046
:1016E000020005904FF44050CDE9000683E8B000B9
:1016F00069460F4800F052FA00220521402000F010
:1017000017FC402000F006FC00220521412000F0DB
:101710000FFC412000F0FEFB07B0F0BD006400406C
:101720001C73002030380240000C0240006800406A
:1017300000040240704700001CB5044600200090E1
:10174000014601906B46084A2046FFF760FD08B14C
:10175000FFF749FC0548844204D103486946006804
:10176000FFF76CFB1CBD0000C8730020C47A00208A
:10177000704770477047000070B5044690F820002D
:10178000012804D0606A40F40020606218E0022062
:1017900084F820002068016821F00101016000F058
:1017A0001DFB05460EE000BF00F018FB401B0A2899
:1017B00008D9606A40F400306062052084F8200097
:1017C000012070BD20684068C007EDD1606270BD27
:1017D00070477047704770477047704770472DE9F2
:1017E000F0410446876D00F0F9FA064694F835009A
:1017F0000025022806D08020606584F8345001203E
:10180000BDE8F0812068016821F0160101602068C0
:10181000416921F080014161206C08B9A06C20B1C0
:101820002068016821F0080101602068016821F04A
:10183000010101600CE000F0D1FA801B052807D9F6
:1018400020206065032084F8350084F83450D7E701
:1018500020680068C007EED194F85C103F208840F3
:10186000B860012084F8350084F834500020C7E7C0
:1018700090F83510022903D080214165012070477E
:10188000052180F835100068016821F00101016030
:10189000002070472DE9F84304464FF00009CDF8C9
:1018A000009063484FF41651A56D0068B0FBF1F746
:1018B0002E6894F85C10082000FA01F131420FD034
:1018C00021680A6852070BD50A6822F004020A60F0
:1018D00094F85C108840A860606D40F0010060657D
:1018E00094F85C104FF0010808FA01F0304208D07B
:1018F00021684969090604D5A860606D40F00200BE
:10190000606594F85C1004208840304208D021685B
:101910000968890704D5A860606D40F0040060651F
:1019200094F85C1010208840304218D02168096873
:10193000090714D5A86020680168490304D5006828
:10194000000308D5A16C07E00168C90503D401684C
:1019500021F008010160216C09B12046884794F804
:101960005C1020208840304231D021680968C906C7
:101970002DD5A86094F8350005282068016806D0A8
:10198000490347D5006800031DD4616C1CE021F0B9
:10199000160101602068416921F080014161206CDD
:1019A00008B9A06C20B12068016821F0080101602D
:1019B00094F85C103F208840A86084F8358084F853
:1019C0003490216D1FE0E16B09B120468847606DBE
:1019D00000282BD0606DC00714D0052084F8350096
:1019E0002068016821F0010101600098401C00900E
:1019F000B84203D820680068C007F6D184F8358063
:101A000084F83490E16C002910D001B02046BDE884
:101A1000F04308470168C905D5D4016821F01001D9
:101A2000016084F8358084F83490CCE7BDE8F88311
:101A30002C7300202DE9F041044600F0CFF9064652
:101A40005CB1022084F83500002584F83450206809
:101A5000016821F0010101600DE00120BDE8F08185
:101A600000F0BCF9801B052805D920206065032003
:101A700084F83500F2E720680068C007F0D12268DA
:101A8000116820480140D4E901031843D4E9033622
:101A90003343184363691843A3691843E369184340
:101AA000236A18430843616A042903D1D4E90B135C
:101AB00019430843106020684069666A20F00701F6
:101AC00030460E43012704280CD1A06A0643E06A81
:101AD00040B12046FFF748FA20B14020606584F805
:101AE0003570BAE7206846612046FFF729FA94F876
:101AF0005C203F2191408160656584F8357000204D
:101B0000ACE700003F8010F02DE9F0410446866DFF
:101B100090F83400002501280DD0012084F834000D
:101B200094F835700020012F07D084F83400022586
:101B30002846BDE8F0810220FBE7022784F83570D3
:101B400060652046FFF73AFA94F85C103F20884021
:101B5000B0602068016841F016010160206C20B17E
:101B60002068016841F0080101602068016841F0C7
:101B700001010160DCE7000070B5044600F02EF9B9
:101B80000546601C02D004480078044400F026F9A1
:101B9000401BA042FAD370BD207300202DE9F84FFE
:101BA000DFF8F8A10022012403254FF00F090AF104
:101BB000040BAAF1040E00BF0B6804FA02F63340CE
:101BC000B34270D10F7907F00307012F01D0022F24
:101BD00016D187684FEA420805FA08FC27EA0C0785
:101BE000D1F80CC00CFA08FC4CEA070CC0F808C08D
:101BF0004768B7430E79C6F3001696403E434660E9
:101C00000E79F643B6070AD0C7684FEA420C05FAC8
:101C10000CF6B7438E6806FA0CF63E43C6600E79A2
:101C200006F00306022E10D1D60800EB8608D8F87D
:101C3000206057074FEAD76C09FA0CF7BE430F69CB
:101C400007FA0CF73743C8F8207006684FEA420CD1
:101C500005FA0CF7BE430F7907F0030707FA0CF7F4
:101C6000374307604E6816F4403F1CD04C4E37682F
:101C700047F480473760366822F0030706F4804651
:101C80000096484E07EB060CDCF8086897073F0FF4
:101C900009FA07F826EA0806DFF80C81404503D167
:101CA0004FF0000841E072E0DFF80081404502D1CA
:101CB0004FF0010839E0DFF8F880404502D14FF0DD
:101CC000020832E0DFF8EC80404502D14FF0030813
:101CD0002BE0DFF8E480404502D14FF0040824E017
:101CE000DFF8D880404502D14FF005081DE0DFF84D
:101CF000D080404502D14FF0060816E0DFF8C480DE
:101D0000404502D14FF007080FE0DFF8BC804045A6
:101D100002D14FF0080808E0DFF8B080404502D15A
:101D20004FF0090801E04FF00A0808FA07F848EAFE
:101D30000608CCF80888DAF800605746D1F804C0E5
:101D40009E435FEACC2C00D51E433E60DBF800606A
:101D50005F46D1F804C09E435FEA8C2C00D51E4339
:101D60003E60DEF800607746D1F804C09E435FEA2B
:101D70008C3C00D51E433E60084F083F3E68D1F8BA
:101D800004C09E435FEACC3C00D51E433E60521C1B
:101D9000102AFFF411AFBDE8F88F0000083C0140A5
:101DA000443802400030014000000240000402407C
:101DB00000080240000C02400010024000140240E3
:101DC00000180240001C0240002002400024024093
:101DD0000AB1816170470904FBE70000014880688F
:101DE0007047000020730020024881680278114487
:101DF00081607047207300200B4810B5016841F4E2
:101E000000710160016841F480610160016841F482
:101E100080710160032000F0ABF80F2000F006F89D
:101E200000F05CF8002010BD003C024030B50546D3
:101E30001F4887B00024016841F02001016000685C
:101E400006A900F02000009001A800F03DF90498D8
:101E5000A8B100F059F940001649174AB0FBF1F15A
:101E60001648491E026040F2E732C0E90324C0E987
:101E70000114846100F050FD040003D015E000F06F
:101E800043F9E9E70D4800F075FD04000DD1372056
:101E900000F040F8102D07D200222946372000F02C
:101EA00047F80748056000E0012407B0204630BD30
:101EB0004038024040420F00001400408C7F002058
:101EC0002473002010B501F037FCBDE8104000215C
:101ED000014801F01FB80000FC7B00200C4882B0D4
:101EE000016841F480410160006800F48040009086
:101EF0000748001F016841F080510160006800221E
:101F000000F0805000900F21901E02B000F010B839
:101F100044380240002809DB00F01F0201219140F3
:101F20004009800000F1E020C0F800117047000077
:101F3000F0B40E4B1B680C46C3F30223C3F1070534
:101F4000042D00D90425191D072901D2002300E022
:101F5000DB1E012606FA05F1491E214099409E40EC
:101F6000761E16403143F0BC03F0BEBE0CED00E01F
:101F7000064900F0070208684FF6FF03184040EAE0
:101F80000220034A10430860704700000CED00E097
:101F90000000FA052DE9F0470E46050065D0DFF890
:101FA0001481D8F80000F7B200F00F00B04207D259
:101FB00088F80070D8F8000000F00F00B04254D14B
:101FC00028683D4C810712D5400703D5206840F4AE
:101FD000E05020602878000703D5206840F4604076
:101FE00020602068A96820F0F0000843206028786D
:101FF000C0072DD0304968680839012812D002285E
:1020000013D0032811D00968890700292DDA216827
:1020100021F0030101432160FFF7E0FE814641F218
:10202000883A0EE009688903EFE709688901ECE75F
:10203000FFF7D4FEA0EB0901514502D90320BDE80A
:10204000F0872068696800F00C00B0EB810FEFD1D9
:10205000D8F80010404601F00F01B14207D90770CF
:10206000006800F00F00B04201D00120E7E72878B7
:10207000400705D52068E96820F4E0500843206057
:102080002878000706D52068296920F4604040EAD6
:10209000C100206000F058F82168084AC1F303111C
:1020A000515CC8400649086006480068FFF7BEFE5C
:1020B0000020C4E7003C024008380240BC8E000803
:1020C0002C730020247300200F2202600C4A136836
:1020D00003F003034360136803F0F00383601368A5
:1020E00003F4E053C36012684FF4E05303EAD202F2
:1020F00002610448006800F00F00086070470000AB
:1021000008380240003C024004480549006809685C
:10211000044AC1F38221515CC84070472C730020EF
:1021200008380240CC8E0008044805490068096858
:10213000044AC1F34231515CC84070472C730020FF
:1021400008380240CC8E0008154810B5006810F021
:102150000C02144813D01449042A0FD0082A0ED1B7
:102160000F4C241F2268236802F03F025B0207D550
:102170002068C0F38810A0FB010106E0084610BDEE
:102180002168C1F38811A1FB00010023FEF735F996
:102190002168C1F30141491C4900B0FBF1F010BDB9
:1021A000083802400024F400001BB7002DE9F84F66
:1021B00004006ED02078DFF84C93C007A9F1040525
:1021C0004AD009F104000168C1F38101012908D056
:1021D0000068C0F3810002280AD1D9F8000040024B
:1021E00006D52868800337D560680028E1D033E041
:1021F0006068B0F5803F10D0B0F5A02F286810D0EF
:1022000020F480302860286820F4802028606068EE
:10221000A8B1FFF7E3FD06460DE0286840F48030E2
:10222000F4E740F480202860F7E700BFFFF7D6FD11
:10223000801B642873D828688003F7D50CE0FFF76B
:10224000CDFD064605E000BFFFF7C8FD801B6428F2
:10225000F0D828688003F7D42078DFF8AC828007B4
:102260004FF0000A3ED5A748001D016811F00C0F81
:1022700008D00068C0F3810002280BD1D9F8000013
:10228000400207D42868800716D5E068012800D1ED
:1022900012E033E1E068B8B10120C8F80000FFF7B0
:1022A0009DFD064605E000BFFFF798FD801B022854
:1022B000C0D828688007F7D52868216920F0F80081
:1022C00040EAC10028600DE0C8F800A0FFF786FDD5
:1022D000064604E0FFF782FD801B02281FD828680D
:1022E0008007F7D42078000722D5864F8748616998
:1022F000703771B101210160FFF770FD064604E0FF
:10230000FFF76CFD801B022809D838688007F7D5D5
:102310000EE0C0F800A0FFF761FD064605E082E090
:10232000FFF75CFD801B02287DD838688007F7D452
:102330002078400768D5DFF8CCB100270BF13C0BC3
:10234000DBF80000C0000BD4DBF8001041F0805136
:10235000CBF80010DBF80000012700F0805000905F
:102360006B4E3068C00510D4306840F48070306027
:10237000FFF734FD009005E0FFF730FD0099401AAB
:10238000022850D83068C005F6D55E4EA0686C367D
:1023900001280FD00528306810D020F001003060EF
:1023A000306820F004003060A068B8B1FFF716FD77
:1023B00000900FE0306840F00100F4E740F00400C6
:1023C0003060F7E7FFF70AFD0099411A41F28830C3
:1023D000814266D830688007F4D50EE0FFF7FEFC36
:1023E000009007E0FFF7FAFC0099411A41F28830AB
:1023F000814256D830688007F4D42FB1DBF8001042
:1024000021F08051CBF80010A069C8B33D49091DE7
:102410000968C1F3810102294AD00228504607D039
:10242000C8F8600000E03CE0FFF7D8FC04463BE061
:102430004746C8F86000FFF7D1FC064605E000BF3C
:10244000FFF7CCFC801B02282BD828688001F7D42A
:10245000D4E907010843A16A2E4A490802EB014169
:10246000626A41EA8211084394F82C1040EA016143
:10247000C9F8001001203866FFF7B0FC044606E0FA
:102480003EE000BFFFF7AAFC001B022809D828681D
:102490008001F7D534E000BFFFF7A0FC001B022845
:1024A00002D90320BDE8F88F28688001F4D427E022
:1024B0000128F7D0D9F80000E26900F480019142C8
:1024C0001CD1226A00F03F01914217D147F6C0713A
:1024D000626A0140B1EB821F10D1A26A4FF0FF3354
:1024E00000F4403103EB5202B1EB024F06D194F8F5
:1024F0002C1000F07060B0EB016F01D00120D1E72B
:102500000020CFE70438024000004742800E4742D7
:10251000007000400000FFFF70B5040009D0606A41
:10252000002540B125616561A56294F8510040B174
:102530000CE0012070BD6068B0F5827FF4D0E561E9
:10254000F2E784F85050204600F044F8022084F866
:1025500051002068016821F040010160A0882189B4
:1025600000F4827001F404410843A18901F4006180
:102570000843217C01F002010843217D01F00101A3
:102580000843218B01F400710843217F01F03801D9
:10259000084394F8201001F080010843218D01F4D4
:1025A0000051084321680860A069042101EA104035
:1025B00094F8241001F01001084321684860206855
:1025C000C16921F40061C1616565012084F8510091
:1025D000002070BD10B586B0044614216846FDF792
:1025E000B5FF14492068884221D1134800210268B0
:1025F00042F480120260006800F4801005900E48DA
:102600001438026842F020020260006800F02000E6
:1026100005904FF4607000900220CDE90101032085
:1026200003900520049069460448FFF7B7FA06B006
:1026300010BD000000500140443802400014024028
:102640002DE9FF4F81B01D46934604464FF0010926
:102650000E9EFFF7C3FB074694F8510061680128FE
:1026600006D0B1F5827F3CD1A168C9BB042838D11E
:102670000298002871D0BBF1000FFBD0002DF9D0DB
:1026800094F8500001282CD04FF0010A84F850A093
:1026900094F85100042802D0052084F851004FF02E
:1026A0000008C4F85480C4F838B0E587A5870299BB
:1026B0002163E586A586C4F84080C4F8448020687C
:1026C0000168490603D4016841F040010160E068F7
:1026D000B0F5006F606808D0F0B3012D49D081E0FB
:1026E000FFE7022005B0BDE8F08F08B1012D39D118
:1026F000206B21680088C860206B801C2063E08EFE
:10270000401EE0862EE02068816889070FD5E18EA3
:1027100069B1B9F1010F0AD1216B0988C160206B41
:10272000801C2063E08E401EE0864FF00009206888
:102730008168C9070CD0E18F51B1C068A16B0880D6
:10274000A06B801CA063E08F401EE0874FF0010962
:10275000FFF744FBC01B01E00BE067E0B04201D390
:10276000701C50D1E08E0028CDD1E08F0028CAD156
:102770003EE0206B216800780873206B401C2063CA
:10278000E08E401EE0862DE02068816889070FD525
:10279000E18E69B1B9F1010F0AD1216B097801739A
:1027A000206B401C2063E08E401EE0864FF0000945
:1027B00020688168C9070CD0E18F51B1C068A16B56
:1027C0000870A06B401CA063E08F401EE0874FF0B4
:1027D0000109FFF703FBC01BB04202D3701C01D0FC
:1027E00011E086B1E08E0028CED1E08F0028CBD159
:1027F0003A463146204601F0ADFC50B120206065DC
:1028000084F8508012E084F851A084F850800320AE
:1028100068E7A06818B92068C1688068009084F8EB
:1028200051A084F85080606D0028F1D0012059E754
:102830007047704710B590F83C20012A22D0012241
:1028400080F83C20CA688C6822F4407222434C68AD
:1028500022F4806222430C6822F4006222430C6955
:1028600022F4805222434C6922F400522243C96967
:10287000002322F480420A4301684A6480F83C3015
:10288000002010BD022010BD70B590F83C20012A38
:1028900032D0012480F83C40022280F83D200368B9
:1028A0005A689D6822F070060A6832435A60134BDA
:1028B00002689A4214D0B2F1804F11D0104B9A4264
:1028C0000ED0104B9A420BD00F4B9A4208D00F4BB0
:1028D0009A4205D00E4B9A4202D00E4B9A4204D136
:1028E000496825F080031943916080F83D4000213C
:1028F00080F83C10084670BD022070BD0000014009
:102900000004004000080040000C004000040140AA
:10291000004001400018004010B5040003D094F8B6
:102920003D0010B107E0012010BD002084F83C00FC
:10293000204600F01EF8022084F83D00211D20688A
:1029400001F094FD012084F8460084F83E0084F8EC
:102950003F0084F8400084F8410084F8420084F885
:10296000430084F8440084F8450084F83D000020CA
:1029700010BD704790F83D10012901D0012070472B
:10298000022180F83D100168CA6842F00102CA6065
:1029900000681149884214D0B0F1804F11D00F491E
:1029A00088420ED00E4988420BD00E49884208D08A
:1029B0000D49884205D00D49884202D00C49884211
:1029C00004D1816801F00701062903D0016841F0B4
:1029D0000101016000207047000001400004004038
:1029E00000080040000C004000040140004001408D
:1029F000001800402DE9F0410D46040003D094F882
:102A00003D0018B108E00120BDE8F081002084F805
:102A10003C00204600F040F8022084F83D00206889
:102A2000816844F2070291438160211D206801F012
:102A30001DFD226890689169166A2B68AF6903438F
:102A400040F20330814341EA0721A868EF69084357
:102A50004FF6FC418843E96840EA072001432869B2
:102A60002F6A000140EA0730084369686D6926F063
:102A7000AA0646EA0515294393602268906154F836
:102A8000460B0162012004F81F09E0752076E0760C
:102A90002077A0750020B7E7F0B587B00446142171
:102AA0006846FDF753FD3A4A266800243849103A33
:102AB000032502233748B6F1804F1BD0364FBE4264
:102AC0002FD10E6846F002060E60096801F002017F
:102AD0000591116841F001011160116801F00101D7
:102AE0000591C0218DE83A0004936946FFF756F836
:102AF00007B0F0BD0E6846F001060E60096801F0EF
:102B000001010591116841F0010111601168029401
:102B100001F001010591CDE900530121CDE90351F7
:102B2000E3E71E48864217D1086840F004000860B9
:102B3000086800F004000590106840F0080010607C
:102B40001068694600F0080005904FF440508DE889
:102B5000390013480493C9E712488642C8D108686F
:102B600040F008000860086800F008000590106850
:102B700040F0800010601068694600F08000059009
:102B80004FF440608DE8390007480493AEE7000039
:102B900040380240000002400004004000080040AD
:102BA000000C0240000C0040001C024070B590F880
:102BB0003E60044690F83F5090F8423090F8432031
:102BC000022021B104290ED0012E1BD114E0012EC8
:102BD00018D1012B16D184F83E0084F8420001225E
:102BE0000021206820E0012D0CD1012A0AD184F8AF
:102BF0003F0084F8430014E0012D03D1012B01D1E3
:102C0000012A01D0012070BD84F83E0084F83F0005
:102C100084F8420084F8430001220021206801F07A
:102C20008DFC01220421206801F088FC20680168E5
:102C300041F001010160002070BD70472DE9F041B5
:102C400004460068C66805694FF00007A90713D558
:102C5000B10711D5F91E0161012020772068806934
:102C60008007204602D0FFF7E8FF04E000F0A8F854
:102C7000204600F04DF92777680716D5700714D560
:102C800021686FF0040008610220207720688069C5
:102C900010F4407F204602D0FFF7CFFF04E000F0A1
:102CA0008FF8204600F034F92777280715D530072C
:102CB00013D521686FF00800086104202077206890
:102CC000C0698007204602D0FFF7B7FF04E000F09C
:102CD00077F8204600F01CF92777E80616D5F006AD
:102CE00014D521686FF01000086108202077206853
:102CF000C06910F4407F204602D0FFF79EFF04E039
:102D000000F05EF8204600F003F92777E80708D0C6
:102D1000F00706D021686FF001000861204600F03E
:102D20005DF9280608D5300606D521686FF08000C9
:102D300008612046FFF77CFD680608D5700606D5B9
:102D400021686FF040000861204600F051F9A806A4
:102D50000AD5B00608D521686FF02000086120462A
:102D6000BDE8F041FFF765BDBDE8F08110B586B064
:102D7000044614216846FDF7E9FB0E4920688842A5
:102D800015D10D480021026842F48072026000688B
:102D900000F480700590E42000900220CDE901014C
:102DA0000320CDE9031069460448FEF7F7FE06B09C
:102DB00010BD0000000401403038024000200240F5
:102DC000704770B5044690F83C0000260D46012877
:102DD0000FD0012084F83C006AB1042A1DD0082AD3
:102DE0002FD00C2A3FD00126002084F83C0030462A
:102DF00070BD022070BD206801F0AEFB20688169C3
:102E000041F0080181612068816921F0040181613C
:102E1000206881692A69114311E0206801F0CCFB28
:102E20002068816941F4006181612068816921F431
:102E300080618161206881692A6941EA022181619A
:102E4000D2E7206801F0EEFB2068C16941F008017B
:102E5000C1612068C16921F00401C1612068C169B4
:102E60002A69114311E0206801F010FC2068C16953
:102E700041F40061C1612068C16921F48061C161D0
:102E80002068C1692A6941EA0221C161ACE710B535
:102E9000040003D094F83D0010B107E0012010BDFC
:102EA000002084F83C00204600F01EF8022084F840
:102EB0003D00211D206801F0D9FA012084F8460068
:102EC00084F83E0084F83F0084F8400084F8410014
:102ED00084F8420084F8430084F8440084F84500F4
:102EE00084F83D00002010BD08B5006806498842FE
:102EF00008D10648016841F002010160006800F055
:102F00000200009008BD0000000401404438024067
:102F10007047000010B50446022249B104290ED0C2
:102F2000082913D094F84100012816D0012010BDC3
:102F300094F83E000128F9D184F83E200FE094F87F
:102F40003F000128F2D184F83F2008E094F84000C7
:102F50000128EBD184F8402001E084F841200122CF
:102F6000206801F0EBFA16492068164A884201D021
:102F7000904203D1436C43F4004343642068884289
:102F800013D0B0F1804F10D00F4988420DD00F49B7
:102F900088420AD00E49884207D0904205D00D4998
:102FA000884202D00C49884204D1816801F00701AF
:102FB000062903D0016841F001010160002010BD25
:102FC00000000140000401400004004000080040EF
:102FD000000C004000400140001800400068034918
:102FE000884201D1FEF700BF704700000014004086
:102FF0007047704710B504460068406994F8411066
:10300000C0F3C010212911D180B12068143050E8DC
:10301000001F21F0800140E80012002AF5D1A06BCA
:1030200008B1FEF7DCFB204601F035FC2068406962
:1030300094F84210C0F38010222911D180B1206889
:10304000143050E8001F21F0400140E80012002A2F
:10305000F5D1E06B08B1FEF7C2FB204601F0F4FBAE
:10306000002010BD70470000F8B5016804460868EC
:10307000CA684B6910F00F0F4FF0000559D003F0EC
:10308000010602F49077374365D0C10705D0D1051A
:1030900003D5616C41F001016164410705D5D90791
:1030A00003D0616C41F002016164810705D5D90745
:1030B00003D0616C41F004016164010707D502F09F
:1030C0002001314303D0616C41F008016164616CFF
:1030D00000293AD0800604D5900602D5204601F09A
:1030E000E8FB20684069616CC0F38010090700D4D8
:1030F00060B3204601F0A8FB20684069400621D556
:103100002068143050E8001F21F0400140E8001210
:10311000002AF5D1E06BA8B172490165E06BFEF7BA
:10312000A7FB002811D0E06B016D01B0BDE8F040B5
:10313000084783060FD593060DD52046BDE8F84015
:1031400001F0B7BB2046FFF78DFFF8BD2046FFF723
:1031500089FF6564F8BD266B2023012E7ED1C6064B
:103160007CD5D6067AD508684868009048694FF043
:10317000020640064DD5E26B106840684FF4807738
:103180000004000C3AD0A18D814237D9E085D06986
:10319000B8422DD020680C3050E8001F21F4807117
:1031A00040E80012002AF5D12068143050E8001FD2
:1031B00021F0010140E80012002AF5D12068143006
:1031C00050E8001F21F0400140E80012002AF5D12C
:1031D00084F84230256320680C3050E8001F21F04D
:1031E000100140E80012002AF5D1E06BFEF7F7FA73
:1031F0006663A08DE18D401A81B206E0A18D814207
:10320000A8D1D069B842A5D166632046FFF7F1FE88
:10321000F8BDA08DE18D401A81B2E08D0028F7D075
:103220000029F5D020680C3050E8002F22F490726D
:1032300040E80027002FF5D12068143050E8002F17
:1032400022F0010240E80027002FF5D184F8423037
:10325000256320680C3050E8002F00E006E022F0E3
:10326000100240E80023002BF3D1CDE705062BD553
:10327000150629D594F841002128C9D1A068B0F5D8
:10328000805F01D12069B0B1206A411C21622168B0
:1032900000784860E08C401E0004000CE084B7D148
:1032A0002068C16821F08001C1602068C16841F0D8
:1032B0004001C160F8BD206A0088C0F30800486082
:1032C000206A801C2062E5E74006F3D55006F1D560
:1032D000CA68204622F04002CA6084F8413000F0FB
:1032E00019FAF8BD0147000870B5040004D094F83D
:1032F0004100002510B106E0012070BD84F8405067
:10330000204600F023F8242084F841002068C1689A
:1033100021F40051C160204601F02CFB20680169B6
:1033200021F4904101612068416921F02A01416145
:103330002068C16841F40051C1606564202084F8B0
:10334000410084F842006563002070BD2DE9F04F14
:1033500087B0054614216846FDF7F8F89348DFF872
:1033600048821038D5F800C0DFF840A202220321BD
:103370000823DFF83CE2002407154FF040094FF026
:103380002066C44540D1DAF8008048F08048CAF889
:103390000080DAF800C00CF0804CCDF814C0D0F8F2
:1033A00000C04CF0100CC0F800C0006800F0100025
:1033B0000590CDE90313C8018DE8150069467046F4
:1033C000FEF7ECFBDFF8F0817A494046C0E903479D
:1033D000C8F81440C8F81840C8F81C40C8F8204085
:1033E00088E84202C8F82440FEF724FB08B1FDF744
:1033F000FAFDC5F83880002205215220C8F838505F
:10340000FEF796FD522062E0DFF8B081C44563D13B
:10341000DAF80080A34648F00048CAF80080DAF8DD
:1034200000C00CF0004CCDF814C0D0F800C04CF037
:10343000100CC0F800C0006800F0100005908DE886
:103440001600CDE9031369467046FEF7A7FBDFF8C7
:103450006881584908F1600840461839C0E90347B7
:10346000C8F81440C8F81840C8F81C40C8F82040F4
:1034700088E84202C8F82440FEF7DCFA08B1FDF7FC
:10348000B2FD4D4C4B48C5F83880C0347830C8F890
:103490003850C4E90006C4F808B0C4E903B7C4F85A
:1034A00014B0C4F818B0C4F81CB0C4F820B020465A
:1034B000C4F824B0FEF7BEFA08B1FDF794FDEC6342
:1034C000002205215320A563FEF732FD5320FEF7AD
:1034D00021FD07B0BDE8F08FDFF8E480C445F8D1E6
:1034E000DFF8C8C0A2460CF1040CDCF8008048F0FC
:1034F0002008CCF80080DCF800C00CF0200CCDF8DF
:1035000014C0D0F800C04CF0400CC0F800C00068F7
:1035100000F040000590CDE903134FF484408DE89E
:10352000150069462748FEF739FBDFF8A0802649D9
:103530004046C0E90347C8F81440C8F81840C8F826
:103540001C40C8F8204088E84202C8F82440FEF732
:1035500071FA08B1FDF747FD1C4C1B48C5F83880CF
:1035600060347838C8F83850C4E90006C4F808A0B8
:10357000C4E903A7C4F814A0C4F818A0C4F81CA098
:10358000C4F820A02046C4F824A0FEF753FA08B1DE
:10359000FDF729FDEC63002205214720A563FEF716
:1035A000C7FC472093E70000007800404038024005
:1035B0000010024028600240AC7D0020007C0040EA
:1035C0000014014000180240A0640240CC7E00209C
:1035D00090F84230202B01D00220704721B11AB15F
:1035E0000023036301F04CBA012070477047704715
:1035F0002DE9F843044690F84100984616460D46DA
:10360000202802D00220BDE8F88385B17EB10020D9
:103610006064212084F84100FEF7E0FBA684814627
:10362000E684A0682027B0F5805F02D003E0012087
:10363000E9E7206910B12E4600250EE000260CE0D7
:103640008021204601F06CFAA8B9C6B116F8010B2A
:1036500021684860E08C401EE084E08C4B464FF0CF
:103660000002CDF800800028EAD14FF0400120464A
:1036700001F056FA40B184F841700320C3E735F8F1
:10368000020BC0F30800E3E784F841700020BAE7BA
:1036900070B5044690F84100202801D0022070BD8A
:1036A00001B3FAB12162A284E28400206064212384
:1036B00084F84130A56B144BEB63A56B134B2B6463
:1036C000A56B134BEB64A36B186520681346A56BC1
:1036D000021D2846FEF718FA30B110206064202041
:1036E00084F84100012070BD21686FF0400008603F
:1036F0002068143050E8001F41F0800140E80012BB
:10370000002AF5D1002070BDFD4700083F480008A1
:103710000F47000870477047FEE7000010B52820EB
:10372000FCF73CFE04462821FCF710FF014804602A
:10373000204610BDB0000020014800210160704704
:10374000B000002030B500219FED470A474AF5241C
:10375000126885E0435C552B01D0491C7FE043187B
:103760005D78522D04D0532D29D0592D76D14DE0BE
:10377000B3F9025000EE905AF8EEE00A20EE801AFB
:10378000DFED3B0A21EE201A82ED071AB3F904504F
:1037900001EE105AB8EEC11A21EE001A21EE201ADD
:1037A00082ED081AB3F9063001EE103AB8EEC11AEC
:1037B00021EE001A61EE200AC2ED090A4EE0B3F9CB
:1037C000025000EE905AF8EEE00A20EE801ADFED8B
:1037D000290A21EE201A82ED041AB3F9045001EEF1
:1037E000105AB8EEC11A21EE001A21EE201A82ED0D
:1037F000051AB3F9063001EE103AB8EEC11A21EEFF
:10380000001A61EE200AC2ED060A27E0B3F9025061
:1038100000EE905AF8EEE00A60EE800AC2ED000A6F
:10382000B3F9045000EE905AF8EEE00A60EE800A18
:10383000C2ED010AB3F9065000EE905AF8EEE00A24
:1038400060EE800AC2ED020AB3F9083000EE903A49
:10385000F8EEE00A60EE800AC2ED030A0B3189B28D
:10386000A142FFF677AF30BD00000038B000002065
:103870000000FA440000344310B5642305220E49C9
:103880000E48FDF7B3FA4FF47A70FEF775F90A495E
:10389000642305220A310948FDF7A8FA40F6B8303A
:1038A000FEF76AF9044964230522BDE810400F3190
:1038B0000248FDF79BBA0000B40000201C7D0020E8
:1038C0000F4810B50D4901600321416000214FF4FC
:1038D00000228160C0E903124FF440124261017678
:1038E00041768176C17601774177FDF708FE0028A1
:1038F00003D0BDE81040FDF776BB10BD006400406A
:10390000C47A00200F4810B50D49016003214160C1
:1039100000214FF400228160C0E903124FF44012ED
:103920004261017641768176C17601774177FDF774
:10393000E6FD002803D0BDE81040FDF754BB10BDE4
:1039400000680040EC7A00201D4808B5016841F489
:1039500080010160016801F480010091016841F477
:10396000001101600068002200F4001000900521A1
:103970000B20FEF7DDFA0B20FEF7CCFA0022052122
:103980000C20FEF7D5FA0C20FEF7C4FA0022052120
:103990001120FEF7CDFA1120FEF7BCFA0022052116
:1039A0003920FEF7C5FA3920FEF7B4FA00220521C6
:1039B0004520FEF7BDFABDE808404520FEF7AABA4B
:1039C0003038024010B5B2B01C2227496846FCF7D7
:1039D0008BFD0021684603F0EBFD244C22491C229C
:1039E00020601C3107A8FCF77FFD002107A803F029
:1039F000DFFD1D4960601C2238310EA8FCF774FD04
:103A000000210EA803F0D4FD1749A0601C225431F8
:103A100015A8FCF769FD002115A803F0C9FD12499E
:103A2000E0601C2270311CA8FCF75EFD00211CA880
:103A300003F0BEFD0C4920611C228C3123A8FCF749
:103A400053FD002123A803F0B3FD074960611C2248
:103A5000A8312AA8FCF748FD00212AA803F0A8FDF8
:103A6000A06132B010BD0000F08D0008007300208E
:103A70002DE9F04F87B014216846FCF767FD5148E7
:103A80000024016841F010010160016801F010019B
:103A90000591016841F040010160016801F04001B9
:103AA0000591016841F001010160016801F0010127
:103AB0000591016841F008010160016801F0080109
:103AC0000591016841F480710160016801F4807121
:103AD0000591016841F004010160016801F00401F1
:103AE0000591016841F080010160016801F08001E9
:103AF0000591016841F020010160016801F0200199
:103B00000591016841F00201016000682E4F00F04C
:103B100002000122059011463846FEF759F9DFF8F8
:103B2000AC8001223C214046FEF752F9DFF8A0901C
:103B3000012240214846FEF74BF9DFF898A04FF4E8
:103B40004046012231465046FEF742F9DFF888B080
:103B5000012204215846FEF73BF90022082158466D
:103B6000FEF736F901250095CDE90154694638463E
:103B70000394FEF713F83C200090CDE90154694608
:103B800040460394FEF70AF840200090CDE9015426
:103B9000694648460394FEF701F80096CDE90154C2
:103BA000694650460394FDF7F9FF0C200090CDE9DB
:103BB0000154694658460394FDF7F0FF07B0BDE88D
:103BC000F08F00003038024000200240001C02400C
:103BD00000140240000C024000000240104810B5E2
:103BE0000E4901604FF48271416000218160C16023
:103BF0004FF400720161C0E905123022C0E90721CB
:103C0000416281620A21C162FEF786FC002803D06E
:103C1000BDE81040FDF7E7B910BD000000500140BD
:103C2000147B002010B58CB024216846FCF78EFC74
:103C30000024144809944FF080410A94C0E900140C
:103C4000611EC0E90241046184610120CDE90004E4
:103C5000CDE902040494CDE905400794694609487A
:103C60000894FEF7C7FE08B1FDF7BDF9099409A94C
:103C700004480A94FEF708FE002801D0FDF7B3F9C6
:103C80000CB010BD6C7B002010B58CB024216846B0
:103C9000FCF75CFC00241548099413490A94C0E918
:103CA00000144FF6FF71C0E90241046184610120F4
:103CB000CDE90004CDE902040494CDE90540079460
:103CC00069460A480894FEF795FE08B1FDF78BF99E
:103CD000099409A905480A94FEF7D6FD002801D0E9
:103CE000FDF781F90CB010BD00040040B47B00204A
:103CF00010B58CB024216846FCF728FC0024154838
:103D0000099413490A94C0E900144FF6FF71C0E901
:103D10000241046184610120CDE90004CDE902047F
:103D20000494CDE90540079469460A480894FEF7D3
:103D300061FE08B1FDF757F9099409A905480A94ED
:103D4000FEF7A2FD002801D0FDF74DF90CB010BD23
:103D500000080040FC7B002010B58CB02421684690
:103D6000FCF7F4FB00241548099413490A94C0E9B0
:103D70000014611EC0E90241046184610120CDE9A3
:103D80000004CDE902040494CDE905400794694696
:103D90000A480894FEF72EFE08B1FDF724F90994AD
:103DA00009A906480A94FEF76FFD002801D0FDF727
:103DB0001AF90CB010BD0000000C0040447C00203B
:103DC00030B591B000240F941C2168461094FCF784
:103DD000BDFB202107A8FCF7B9FB2C482A4942F279
:103DE000CF05C0E90014C0E9024504614461846163
:103DF000FFF74DF808B1FDF7F6F80F940FA9234827
:103E00001094FEF741FD08B1FDF7EDF86020009039
:103E1000CDE90154039404940594002269461B489B
:103E20000694FEF7CEFF08B1FDF7DDF804226946DF
:103E30001648FEF7C6FF08B1FDF7D5F80822694617
:103E40001248FEF7BEFF08B1FDF7CDF80C22694617
:103E50000E480194FEF7B5FF08B1FDF7C4F80794CA
:103E6000089409944FF400500A94CDE90B4007A937
:103E700006480E94FEF7DEFC08B1FDF7B4F80348DF
:103E8000FEF774FF11B030BD000401408C7C0020AF
:103E90000C4810B50A4901604FF4165141600021E9
:103EA00081600C22C160C0E904128161C161FFF729
:103EB0001BFA002803D0BDE81040FDF794B810BDF0
:103EC00000780040D47C00200C4810B50A490160FD
:103ED0004FF4E1314160002181600C22C160C0E9F2
:103EE00004128161C161FFF7FFF9002803D0BDE82A
:103EF0001040FDF778B810BD007C00401C7D00200C
:103F00000C4810B50A4901604FF4E13141600021CD
:103F100081600C22C160C0E904128161C161FFF7B8
:103F2000E3F9002803D0BDE81040FDF75CB810BDF0
:103F300000140140647D0020FEE7FEE70278012ABC
:103F400006D0022A06D0032A10D0042A06D10FE098
:103F5000224900E022490968496AC160D0E9033179
:103F6000591A032A06D0042A04D00EE01D49F2E7AC
:103F70001D49F0E7B1F5004F02DBA1F5803104E007
:103F800011F5004F01DA01F58031490000EE101AF9
:103F9000DFED160AB0F90810B8EEC00A20EE201ABC
:103FA00000EE101AB8EEC00AC1EE000A90ED011A38
:103FB00080EE810AB7EE001AB1EE400A80ED050AE4
:103FC000D0ED060A20EE800A71EE600A90ED071A25
:103FD00000EE810A80ED070A036170476C7B0020C8
:103FE000B47B0020FC7B0020447C0020C3F54840CB
:103FF00070B505462020FCF7D1F9040015D020212A
:10400000FCF7A4FA9FED0A0A257084ED010A4FF42B
:10401000C87020810748B5EE000A00EB850084EDEA
:10402000060A40F8044C204670BD002070BD000018
:104030000AD7A33B6078002090ED041A80ED051AA2
:10404000D0ED030AC0ED040A90ED090AD0ED081A7C
:1040500030EE610A80ED030A90F8301011B10129A9
:104060002DD048E090ED061A71EE001AC0ED061A48
:1040700090ED071AF4EEC11AF1EE10FA01DD80EDB1
:10408000061AD0ED061AB1EE411AF4EEC11AF1EE9D
:1040900010FA01D280ED061A90ED001AD0ED021A46
:1040A00090ED062A21EE001A30EE600AD0ED010AEA
:1040B00001EE821A00EE801A80ED0A1A1BE070EE03
:1040C000601A90ED002AF0EE002A61EE821AB0EE3E
:1040D000402A00EEE22A72EE010A90ED021A41EE49
:1040E000201AD0ED010A40EE801A90ED0A0A31EE56
:1040F000800A80ED0A0AD0ED0A0A90ED0B0AF4EE70
:10410000C00AF1EE10FA01DD80ED0A0AD0ED0A0ACC
:10411000B1EE400AF4EEC00AF1EE10FA01D280EDE1
:104120000A0A704710B53420FCF738F904463421E8
:10413000FCF70CFA204610BD80ED000AC0ED020A23
:1041400080ED011AC0ED071A80ED0B2A80F83010BF
:1041500070470000F8B515460E460B46009204461F
:104160000122022100F02CF8A0B91348134900687D
:10417000B0FBF1F04FF47A71484300906068B0F5FD
:10418000827F0DD13346002280212046009500F029
:1041900017F870B1606D40F0200060650320F8BD35
:1041A000009830B1401E009020688068C04300062F
:1041B000F6D50020F8BD00002C73002000366E01FB
:1041C0002DE9F8431E46914688460446089DFDF7B2
:1041D00005FE401B351AFDF701FE0746264800681C
:1041E000C0F3CB3068430AE0701C09D0FDF7F6FD40
:1041F000C01BA8420FD275B10098B8B3401E009002
:104200002068816838EA010033D000214945EBD1AC
:104210000020BDE8F8832068416821F0E00141609A
:104220006068B0F5827F0BD1A068B0F5004F02D076
:10423000B0F5806F04D12068016821F04001016071
:10424000A06AB0F5005F09D12068016821F400512F
:1042500001602068016841F400510160012084F888
:104260005100002084F850000320D2E7FFE700252A
:10427000C6E70121CAE700002C730020012003F0EB
:104280008BF9FBE702F0B9FD052003F085F9F9E7AA
:1042900008B503F089FE0090FCF7C2FA6421684675
:1042A00003F0FEFCF8E710B5034690F842000D2835
:1042B0000ED2DFE800F0070E13181D22270D0D2C7B
:1042C00031363B00184601F06DFC002083F84400B5
:1042D00010BDBDE81040184601F08ABBBDE8104093
:1042E000184601F047BABDE81040184601F078BA08
:1042F000BDE81040184601F0B9BABDE810401846B4
:1043000001F0FABABDE81040184601F03BBBBDE829
:104310001040184601F0E8B9BDE81040184601F019
:10432000A3BBBDE81040184601F0F8BBBDE8104043
:10433000184601F095B908B503F036FE0090FCF779
:10434000A9FA0A21684603F0ABFCF8E708B503F0C8
:104350002BFE0090FCF7AEFA6421684603F0A0FC47
:10436000F8E708B503F020FE0090FCF751FC0521AA
:10437000684603F095FCF8E708B503F015FE0090D9
:10438000FCF750FC0521684603F08AFCF8E70000C2
:1043900010B5502080F31188BFF34F8FBFF36F8F9C
:1043A00003F008FE18B104494FF080500860002067
:1043B00080F3118810BD000004ED00E030B593B02B
:1043C00030216846FCF7C2F814210CA8FCF7BEF8AF
:1043D0001D480025016841F080510160006800F02F
:1043E000805011901948016841F440410160006813
:1043F000022400F44040119001200090000401903C
:104400008001CDE9064006200890A820CDE90904E6
:1044100004200B906846FDF7C9FE08B172B6FEE7AE
:104420000CA90F2081E831004FF4A0500F904FF4F9
:104430008050109005210CA8FDF7ACFD002801D09C
:1044400072B6FEE713B030BD403802400070004045
:104450000248016841F470010160704788ED00E096
:104460000148FEF7EBBB00008C7F0020F0B502682E
:10447000274B284D284E294F294C4FF0804C98420D
:1044800009D0604507D0A84205D0B04203D0B84259
:1044900001D0A04204D122F0700E4A6842EA0E0216
:1044A00098421BD0604519D0A84217D0B04215D011
:1044B000B84213D0A04211D01A4DA8420ED01A4DC6
:1044C000A8420BD0194DA84208D0194DA84205D0DA
:1044D000184DA84202D0184DA84203D122F44075CD
:1044E000CA682A434D6922F080022A438D68C5625A
:1044F0000D688562984201D0A04201D1096901632B
:10450000016841F004010160012141610260F0BDD8
:10451000000001400004004000080040000C004082
:1045200000040140004001400044014000480140B7
:1045300000180040001C00400020004010B501F0B1
:104540001F030121046A99408C430462016A9A4066
:104550001143016210BD0000F0B5036A026A22F047
:104560000102026242688469124E24F073050C68ED
:104570002C4323F002058B682B430D4DA84201D03C
:10458000B04205D123F00807CB683B4323F0040376
:10459000A84201D0B04205D14D6922F440721543C2
:1045A0008A692A4342608461496841630362F0BDBD
:1045B0000000014000040140F0B5026A036A23F0E4
:1045C00010030362436884690D6824F4E64444EAF6
:1045D00005248D6822F0200242EA05120F4D104E8C
:1045E000A84201D0B04206D1CF6822F0800242EA50
:1045F000071222F04002A84201D0B04207D14D6913
:1046000023F4406343EA85038D6943EA85034360ED
:104610008461496881630262F0BD000000000140CE
:1046200000040140F0B5026A036A23F48073036258
:104630004368C46922F4007224F073050C68124EBA
:104640002C438D6842EA05220E4DA84201D0B042AB
:1046500006D1CF6822F4006242EA072222F4806287
:10466000A84201D0B04207D14D6923F4405343EA38
:1046700005138D6943EA05134360C4614968C1634A
:104680000262F0BD000001400004014030B5046A40
:10469000026A22F4805202624268C3690D6823F400
:1046A000E64343EA05238D6824F4005444EA0534C4
:1046B000084DA84202D0084DA84204D14D6922F409
:1046C000804242EA85124260C36149680164046223
:1046D00030BD000000000140000401400148FEF729
:1046E000C3BC0000D47C002010B50448FEF7BCFC1D
:1046F000BDE810400148FCF741BB00001C7D0020D4
:1047000010B5806B0021C185FEF7ACFC10BD70B503
:10471000846B2068406994F84110C0F3C0100025F4
:10472000212904D118B1E584204600F0B4F82068AE
:10473000406994F84210C0F38010222904D118B1C6
:10474000E585204600F080F8606C40F01000606461
:104750002046FEF787FC70BD10B50146806B0968E6
:1047600009684FF00002C9052ED4C28501680C31DA
:1047700051E8003F23F4807341E80034002CF5D168
:104780000168143151E8003F23F0010341E800348F
:10479000002CF5D10168143151E8003F23F04003AB
:1047A00041E80034002CF5D1202180F84210016B43
:1047B000012909D101680C3151E8003F23F01003B1
:1047C00041E80034002CF5D14263016B012902D08D
:1047D000FEF70CFF10BD818DFEF70BFC10BD10B570
:1047E000806B01214163016B012902D0FEF7FFFEBE
:1047F00010BD818D4908FEF7FCFB10BD10B50146C8
:10480000806B09680968C90516D40021C184016854
:10481000143151E8002F22F0800241E80023002BE0
:10482000F5D101680C3151E8002F42F0400241E817
:104830000023002BF5D110BDFEF76CFF10BD10B5A5
:10484000806BFEF768FF10BD01680C3151E8002F46
:1048500022F4907241E80023002BF5D10168143155
:1048600051E8002F22F0010241E80023002BF5D18E
:10487000016B012909D101680C3151E8002F22F0A8
:10488000100241E80023002BF5D1202180F84210CE
:1048900000210163704701680C3151E8002F22F0BC
:1048A000C00241E80023002BF5D1202180F84110FF
:1048B000704708B590F84210222901D0022008BDA7
:1048C00082684FF480539A4201D1016921B1816A13
:1048D0009A421BD04AB10AE00268816A5268C2F368
:1048E00008020A80816A891C08E0026972B10268C4
:1048F000526802F07F020A70816A491C8162C18D90
:10490000491E0904090CC18503D01BE002685268E6
:10491000F1E70168CA6822F02002CA600168CA682B
:1049200022F48072CA6001684A6922F001024A6179
:10493000202180F8421000214163026B012A03D03C
:10494000FEF754FE002008BD016301680C3151E8F8
:10495000002F22F0100241E80023002BF5D101685E
:104960000A68D20602D50A6849680091818DFEF76F
:1049700040FBE7E770B5044600680169E26821F48E
:104980004051114301612169A068E26908436169EE
:10499000114308432168CA6849F20C639A430243F1
:1049A000CA6020684169A26921F4407111434161E4
:1049B00031492068884202D03049884202D1FDF74F
:1049C000B3FB01E0FDF7A0FBE26900231921642598
:1049D0003226B2F5004F626828D0A0FB0101930F88
:1049E0009200FBF70AFD0146B0FBF5F06FF01802EC
:1049F000504301EB800006EB0010B0FBF5F000F037
:104A0000F002B1FBF5F002EB0012B1FBF5F06FF034
:104A10001803584301EB800006EB0010B0FBF5F0E3
:104A200000F00F0021681044886070BDA0FB0101F8
:104A300092185B41FBF7E1FC0146B0FBF5F0020187
:104A4000B1FBF5F06FF01803584301EB800006EB63
:104A5000C000B0FBF5F000F0F80002EB4002B1FB43
:104A6000F5F0584301EB800006EBC000B0FBF5F019
:104A700000F00700D6E700000010014000140140DC
:104A800038B5816204468285002013466064222284
:104A900084F84220E56B1F4AEA63E56B1E4A2A64EC
:104AA000E56B1E4AEA64E26B10650A462168E06B1A
:104AB000091DFDF729F830B110206064202084F82A
:104AC0004200012038BD20680168406800902069DC
:104AD00048B120680C3050E8001F41F4807140E874
:104AE0000012002AF5D12068143050E8001F41F070
:104AF000010140E80012002AF5D12068143050E886
:104B0000001F41F0400140E80012002AF5D10020CA
:104B100038BD000059470008DF4700080F4700086C
:104B20002DE9F843984617460D460446089E24E0B2
:104B3000701C22D0FDF752F9A0EB0800B0421AD841
:104B4000CEB12068C168490717D5802D15D0402DFA
:104B500013D00168C94309070FD4016800254068D4
:104B600000902046FFF770FE0820606484F84050F3
:104B70000120BDE8F8830320FBE72068006835EAE0
:104B8000000004D00020B842D2D00020F1E701207C
:104B9000F9E7000010B50448FEF766FABDE81040DA
:104BA0000148FCF7EBB80000647D0020FEE7000040
:104BB00070B505466820FBF7F1FB04001DD06821A5
:104BC000FBF7C4FCE86B002520606E1CF0B2FFF719
:104BD0000FFA04EB8501F5B24860042DF5D30A48BD
:104BE0009FED070A84ED0A0A84ED0B0A9FED050A82
:104BF00084ED0C0A0460204670BD002070BD0000EA
:104C00000000000000002442D472002030B5054DA1
:104C1000002400BF55F82400FFF790F9641C042C11
:104C2000F8DB30BD607800200178242930D141784C
:104C300057292DD117498378012209687A2B09D188
:104C4000C378652B24D10379722B21D143796F2B43
:104C50001ED14A758378732B1AD1C378742B17D160
:104C60000379612B0CD14379722B11D18379742B89
:104C70000ED10A758278732A0AD1C278742A07D1B4
:104C800002796F2A04D14079702801D1002008757B
:104C900070470000D472002070B50B4C2068407D36
:104CA00000280FD0FEF7E8FD4FF4FA60FCF764FF30
:104CB000206850F8181B3CC93CC00EC90EC000212A
:104CC00000F81F1C70BD0000D47200202DE9F047D1
:104CD000012208211748FDF77BF8DFF85C80174EAA
:104CE000002408F1080908F118074FF4FA5500BF2D
:104CF00038F8141059F824000022FDF769F857F825
:104D0000240078B1042810D00828306810D0056439
:104D1000641CE4B2042CEBD3BDE8F0474FF47A6096
:104D200002F098BF30684563F2E730688563EFE7CB
:104D3000C563EDE700000240D87200208C7C0020A3
:104D400090F84110062912D2DFE801F00307090BA1
:104D50000D0F14210648FBF7F9BB00F00BB800F06B
:104D600051BC00F051BF00F033BB00F059B87047A0
:104D70004C78002010B590F85E30002112484FF4B6
:104D80004872062B1CD2DFE803F01B03080B0F153B
:104D9000C0E900218160C1600AE0C0E90012F9E7C2
:104DA0000160C0E90112F6E701604160C0E902124A
:104DB000016110BD026042608260C0E9032110BD44
:104DC00001604160E6E700004C78002070B560208B
:104DD000FBF7E4FA05466021FBF7B8FB0024204608
:104DE000FCF70AF845F82400FFF79CF905EB840668
:104DF0007061FFF797F9641CE4B2B062052CEED342
:104E0000FEF78CFCE86302480560284670BD000090
:104E1000D07200200148002101607047D07200204C
:104E200010B504460069DFED1F0A90ED050AA06B7E
:104E300080ED090A206990ED000AA06BB8EEC00A67
:104E400020EE200ADFED180A20EE200ADFED170A17
:104E500080EE201A80ED081AA06BFFF7EDF8A06B2A
:104E600090ED0A0A606A80ED090A2069B0F908002D
:104E700000EE100A606AB8EEC00A80ED080A606AA7
:104E8000FFF7DAF8606A4FF4487190ED0A0A0848B3
:104E9000BDEEC00A80ED040A016041608160C1601E
:104EA00010BD00000000B4430000003900001042B3
:104EB0004C78002010B5064C206890F8400000287F
:104EC00005D0FEF7D9FC2168002081F8400010BD14
:104ED000D07200202DE9F04198462DED028B174647
:104EE000B0EE408A0C460646012538E096F84200AE
:104EF000002836D05FF0000004FB00F107EB8101D1
:104F000001EB8501D1ED000A56F82010401CC0B21B
:104F100091ED041A042871EE600AC1ED050AEBD385
:104F2000306990ED040A80ED050A08EB850090EDEC
:104F3000000A08EB840000EB850086ED120A90ED74
:104F4000000A86ED130A9FED090A28EE000ABCEE5E
:104F5000C00A10EE100A02F07DFE6D1CADB2A54233
:104F6000C4D3BDEC028BBDE8F081000000007A44A0
:104F70002DE9F0411F462DED028B9046B0EE408AA0
:104F80000E460546012434E095F84200002832D050
:104F90005FF0000055F82010401CC0B2D1ED040AAB
:104FA0000428C1ED050AF5D3286908EB840190EDCA
:104FB000040AD1ED000A30EE600A80ED050A07EB25
:104FC000840090ED000A07EB860000EB840085ED7D
:104FD000120A90ED000A85ED130A9FED090A28EEEA
:104FE000000ABCEEC00A10EE100A02F033FE641C88
:104FF000A4B2B442C8D3BDEC028BBDE8F08100007E
:1050000000007A442DE9F04104460178EC48012380
:10501000502900680AD161786F297CD1A178732961
:1050200079D1E178652976D180F840302278002165
:10503000432A12D16278542A6DD1A2784D2A6AD1BE
:10504000E2786F2A67D12279642A64D16279652A6D
:1050500061D180F8413080F85E1022789FEDD90A46
:10506000DFEDD90A9FEDD91A032504264FF0020C73
:10507000532A0DD162784D2A31D1A2786F2A4AD1B4
:10508000E278642A47D12279652A44D180F841C068
:105090002278542A20D162784D2A3CD1A2786F2AF6
:1050A00039D1E278642A36D12279652A33D180F861
:1050B0004150002250F82270521CD2B2D7ED001A93
:1050C000052AF8EEE11A61EE801A61EEA01A81EE6F
:1050D000812A87ED042AEDD32278532A2CD16278D5
:1050E000432A18D1A2784D2A15D1E2786F2A12D11D
:1050F0002279642A0FD16279652A0CD180F8416047
:1051000080F8501080F8441080F85110002241655A
:1051100050F8227000E08AE0D7ED001A521CD2B29B
:10512000F8EEE11A052A61EE801A61EEA01A81EE0E
:10513000812A87ED042AEBD3227805274C2A1DD13A
:105140006278492A72D1A278462A70D1E278542A2C
:105150006DD180F84170002250F822E0521CD2B28A
:10516000DEED001A052AF8EEE11A61EE801A61EE12
:10517000A01A81EE812A8EED042AEDD32278232A0B
:1051800021D16278532A28D1A2784D2A4FD194F8A0
:1051900004E0E278BEF1000F16D0BEF1010F46D157
:1051A000B4F805E09EFA9EFE00EE10EAB8EE400A62
:1051B000B1EE400A00EB820252F8042C82ED060A9E
:1051C0002278232A09D0C7E0B4F805E09EFA9EFEB3
:1051D00000EE10EAB8EE400AECE76278542A76D185
:1051E000A278732A24D0722A47D06C2A53D0702A0E
:1051F0005FD0632A6FD0662A6BD0732A1BD0752AC2
:1052000068D0642A13D1E2786F2A10D12279772AE4
:105210000DD162796E2A0AD10C2280F84220082230
:1052200080F845202278232A51D095E0B5E075E03A
:10523000E278742A16D0E278632A6FD122796D2A37
:105240006CD162796F2A69D1A279642A66D1E27938
:10525000652A63D10A2280F8422080F85130062264
:105260004165DDE722796F2A58D16279702A55D1DC
:1052700080F8421080F84510D4E7E278692A4DD1D1
:105280002279732A4AD16279652A47D180F842305F
:1052900080F84530C6E7E278692A3FD122796E2A44
:1052A0003CD16279652A39D180F8425080F845C0F6
:1052B000B8E7E2786F2A31D122796C2A7DD1627900
:1052C000792A7AD180F8426080F84550AAE72EE02A
:1052D00001E014E023E0E278692A6ED12279722A93
:1052E0006BD16279632A68D1A2796C2A65D1E2799F
:1052F000652A62D180F8427080F8456092E7E278D2
:10530000612A5AD122796C2A57D162796C2A54D1F8
:10531000092280F8422080F8457083E74DE0E2786A
:10532000702A4AD10B2280F84220072278E762785F
:10533000432A42D1A278542A3FD1E278312A0FD0B1
:10534000322A10D0332A11D0342A12D0352A13D061
:10535000302A32D180F85E10207847280FD019E02B
:1053600080F85E30F8E780F85EC0F5E780F85E50C0
:10537000F2E780F85E60EFE780F85E70ECE7607857
:1053800072281AD1A078612817D1E078622814D148
:10539000FBF72CFE20784C280FD160786F280CD1B9
:1053A000A0786F2809D1E078732806D12079652884
:1053B00003D1BDE8F041FBF721BEBDE8F08100005C
:1053C000D07200200000B4430000003900001042F9
:1053D0002DE9F041294F06462DED048B00249FED69
:1053E000248ADFED248A9FED249A00BF56F824001A
:1053F00006EB840590ED050AA86A80ED090A56F8C7
:10540000240090ED000AA86AB8EEC00A20EE080A4F
:1054100020EE280AC0EE090AC0ED080AA86AFEF7C5
:105420000BFEA86A90ED0A0A686980ED090A56F831
:105430002400B0F9080000EE100A6869B8EEC00A4E
:1054400080ED080A6869FEF7F7FD686990ED0A0AC1
:10545000BDEEC00A10EE100A47F82400641CE4B246
:10546000042CC3D300203861BDEC048BBDE8F0816F
:105470000000B44300000039000010424C780020C6
:1054800038B50B4CA08900B20090208903B2A088E7
:1054900002B2208801B20748FBF7D2FB002000903F
:1054A0000346024603482169FBF7E2FB38BD0000D2
:1054B0004C780020C47A002010B504462DED048BF2
:1054C00000214069DFED4A8AB0EE682A9FED498AE3
:1054D000B1EE041AB7EE000AF0EE481AF0EE480AF0
:1054E000FEF72AFE0021B0EE682A9FED439AB3EE44
:1054F000041AF0EE000AF0EE491ADFED409AA06AB5
:10550000B0EE690AFEF718FE0021B0EE682AF0EE50
:10551000481AB1EE041AF0EE480AB7EE000AA06984
:10552000FEF70AFE0021B0EE682AF0EE491AB3EE4B
:10553000041AF0EE000AB0EE690AE06AFEF7FCFD1C
:105540000021B0EE682AF0EE481AB1EE041AF0EE2F
:10555000480AB7EE000AE069FEF7EEFD0021B0EE62
:10556000682AF0EE491AB3EE041AF0EE000AB0EE23
:10557000690A206BFEF7E0FD0021B0EE682AF0EE2C
:10558000481AB1EE041AF0EE480AB7EE000A206A93
:10559000FEF7D2FD0021B0EE682AF0EE491AB3EE14
:1055A000041AF0EE000AB0EE690A606BFEF7C4FD63
:1055B0000021B0EE682AF0EE481AB1EE041AF0EEBF
:1055C000480AB7EE000A606AFEF7B6FDA06BB0EEBF
:1055D000682AF0EE491ABDEC048B0021B2EE081ADD
:1055E000BDE81040F0EE000A9FED050AFEF7A4BDED
:1055F00000008046000000000000FA440000F04275
:105600000000C8422DE9F041144F0646002400BFB7
:1056100056F8240006EB840590ED060A686980EDD3
:10562000090A56F82400B0F9080000EE100A68696B
:10563000B8EEC00A80ED080A6869FEF7FDFC6869EB
:1056400090ED0A0ABDEEC00A10EE100A47F82400D9
:10565000641CE4B2052CDBD3BDE8F0814C7800205B
:1056600070B5044690F8430000250C2802D084F859
:10567000445003E094F84400002828D100209FED16
:10568000140ADFED141ADFED140A00BF54F82010DD
:10569000401CC0B291ED001A0528B8EEC11A21EEE7
:1056A000001A21EE211A81EE202A81ED042AEDD381
:1056B0000A4B0B4A9FED0B0A3D212046FFF758FC91
:1056C00004F8425F0120A070E5700C20607070BD8E
:1056D0000000B4430000003900001042647600204E
:1056E000082D0020CDCCCC3D70B5044690F8430089
:1056F0000025092802D084F8445003E094F84400BF
:10570000002829D100209FED151ADFED151A9FED15
:10571000150A00BF54F82010401CC0B2D1ED000A99
:105720000528F8EEE00A60EE810A60EEA10A80EE3C
:10573000802A81ED042AEDD30B4B0C4A9FED0C0A15
:1057400051212046FFF7C6FB012084F8440084F86D
:105750004550092084F8430070BD00000000B443A8
:105760000000003900001042A0420020F82700206D
:10577000CDCCCC3D90F843100022022902D080F815
:10578000442003E090F84410002921D100219FED2E
:10579000111ADFED111A9FED110A00BF50F82130E8
:1057A000491CC9B2D3ED000A0529F8EEE00A60EE03
:1057B000810A60EEA10A80EE802A83ED042AEDD3EF
:1057C000012180F8441080F84520022180F8431020
:1057D000704700000000B443000000390000104290
:1057E00070B5044690F843000025032802D084F8E1
:1057F000445003E094F84400002829D100209FED94
:10580000151ADFED151A9FED150A00BF54F8201088
:10581000401CC0B2D1ED000A0528F8EEE00A60EEA7
:10582000810A60EEA10A80EE802A81ED042AEDD380
:105830000B4B0C4A9FED0C0A3D212046FFF74AFB1B
:10584000012084F8440084F84550032084F8430084
:1058500070BD00000000B443000000390000104299
:10586000082F002098040020CDCCCC3D70B5044614
:1058700090F843000025042802D084F8445003E047
:1058800094F84400002829D100209FED151ADFED7F
:10589000151A9FED150A00BF54F82010401CC0B225
:1058A000D1ED000A0528F8EEE00A60EE810A60EE0C
:1058B000A10A80EE802A81ED042AEDD30B4B0C4A1D
:1058C0009FED0C0A79212046FFF704FB012084F8A4
:1058D000440084F84550042084F8430070BD000063
:1058E0000000B4430000003900001042D83200200C
:1058F00068080020CDCCCC3D70B5044690F843003C
:105900000025052802D084F8445003E094F84400B0
:10591000002829D100209FED151ADFED151A9FED03
:10592000150A00BF54F82010401CC0B2D1ED000A87
:105930000528F8EEE00A60EE810A60EEA10A80EE2A
:10594000802A81ED042AEDD30B4B0C4A9FED0C0A03
:105950003D212046FFF7BEFA012084F8440084F878
:105960004550052084F8430070BD00000000B4439A
:105970000000003900001042A0360020F80F00207F
:10598000CDCCCC3D90F843100022062902D080F8FF
:10599000442003E090F84410002921D100219FED1C
:1059A000111ADFED111A9FED110A00BF50F82130D6
:1059B000491CC9B2D3ED000A0529F8EEE00A60EEF1
:1059C000810A60EEA10A80EE802A83ED042AEDD3DD
:1059D000012180F8441080F84520062180F843100A
:1059E000704700000000B44300000039000010427E
:1059F00010B5044690F84400002827D19FED140A02
:105A0000DFED140A9FED141A54F82010401CC0B2A8
:105A1000D1ED001A0528F8EEE11A61EE801A61EE68
:105A2000A01A81EE812A81ED042AEDD30B4B0C4A9A
:105A30009FED0C0A3D212046FFF74CFA012084F827
:105A40004400002184F8451084F8430010BD000094
:105A50000000B4430000003900001042F030002084
:105A6000C8000020CDCCCC3D70B5044690F8430072
:105A700000250A2836D194F85100012832D094F834
:105A8000440000283CD10020DFED1E0A9FED1E1AC5
:105A90009FED1E0A54F82010401CC0B2D1ED001A30
:105AA0000528F8EEE11A61EEA01A61EE811A81EE86
:105AB000802A81ED042AEDD394F8500014499FED1B
:105AC000160A51F82030134951F820205121204660
:105AD000FFF700FA94F85000062806D2401C84F81C
