:020000040800F2
:10000000301C01205D030008DB3A0008353500088C
:10001000D93A0008610D0008914600080000000070
:100020000000000000000000000000009D02000829
:10003000690F000800000000F9020008093E0008EE
:1000400077030008770300087703000877030008A8
:100050007703000877030008770300087703000898
:10006000770300087703000877030008890E00086B
:10007000950E00087703000877030008770300084F
:1000800077030008A10E0008770300087703000833
:10009000990D0008A50D00087703000877030008F4
:1000A0007703000877030008770300087703000848
:1000B0007703000877030008770300087703000838
:1000C0007703000877030008770300087703000828
:1000D0007703000877030008770300087703000818
:1000E0007703000877030008770300087703000808
:1000F00077030008770300087703000877030008F8
:1001000077030008770300087703000877030008E7
:10011000770300087703000877030008D93E00083A
:1001200077030008AD0E0008770300087703000886
:1001300077030008770300087703000877030008B7
:10014000E10D0008ED0D00087703000877030008B3
:1001500077030008B90E0008770300087946000805
:100160007703000877030008770300087703000887
:1001700077030008770300087703000800000000F9
:100180007703000877030008C1410008CD4100084B
:100190007703000877030008770300087703000857
:1001A00000000000000000007703000800F002F8E3
:1001B00000F064F80AA090E8000C82448344AAF19D
:1001C0000107DA4501D100F059F8AFF2090EBAE89B
:1001D0000F0013F0010F18BFFB1A43F0010318477B
:1001E00094830000B483000010F8013B0A4413F02C
:1001F000030408BF10F8014B1D1108BF10F8015B84
:10020000641E05D010F8016B641E01F8016BF9D172
:10021000002D15D010F8014B03F00C030C2BA1EBB3
:1002200004040ABF10F8013BA4EB8314A4EB0324DD
:1002300005F1010314F8016B5B1E01F8016BF9D5A0
:10024000914238BF10F8013BD1D3704700230024FE
:1002500000250026103A28BF78C1FBD8520728BFD6
:1002600030C148BF0B6070471FB508F06EF89DE8BD
:10027000030000F0B1F91FBD10B510BD00F03EFA4B
:100280001146FFF7F1FF06F047FA00F05CFA03B4FD
:10029000FFF7F2FF03BC00F08DFA00002C4B196849
:1002A0000868B0E8F04F80F30988BFF36F8F4FF014
:1002B000000080F3118870470000000008480068C3
:1002C000006880F308884FF0000080F3148862B65D
:1002D00061B6BFF34F8FBFF36F8F00DF00BF00BF6A
:1002E00008ED00E0DFF80C00016841F470010160E6
:1002F000704700BF88ED00E0EFF30980BFF36F8F18
:10030000134B1A681EF0100F08BF20ED108A20E969
:10031000F04F106009B44FF0500080F31188BFF324
:100320004F8FBFF36F8F07F001F84FF0000080F39D
:10033000118809BC19680868B0E8F04F1EF0100F6A
:1003400008BFB0EC108A80F30988BFF36F8F704745
:1003500014CF0020EFF30580704700000948804764
:1003600009480047FEE7FEE7FEE7FEE7FEE7FEE797
:10037000FEE7FEE7FEE7FEE704480549054A064BAF
:1003800070470000C93E0008AD010008301601208A
:10039000301C0120301801203018012070B50646AD
:1003A00000F0FEF8056806F10B0020F00704B442E7
:1003B0009CBF002070BD2B466A68BAB11068A0428D
:1003C00010D304F1080188423CBF5068586007D33D
:1003D0005168101941601168091B01605860146070
:1003E000101D70BD13465268002AE7D121462846E9
:1003F00000F0DEF80028DED170BD53EA020C00F0F8
:1004000069802DE9F04B4FF00006002B1FBFB3FAB7
:1004100083F503FA05F424FA05F65E4012BF16438D
:10042000B2FA82F502FA05F4C5F120051EBF22FAE0
:1004300005FC44EA0C04203556EA044C4FEA144407
:1004400018BF641C4FF000084FF00009904271EB98
:10045000030C39D3002919BFB1FA81F701FA07F665
:10046000B0FA80F700FA07F6C7F120071EBF20FA9E
:1004700007FC46EA0C062037B6FBF4FCA7EB0507A1
:10048000103F07F01F0BCBF120060CFA0BFB2CFAE8
:1004900006F644BFB3460026202FA4BF5E464FF0A9
:1004A000000B5BEA060C08BF4FF0010B19EB0B09C0
:1004B000ABFB027C48EB0608C01B06FB02CC0BFB27
:1004C00003CC71EB0C01C1E70B460246414648469E
:1004D000BDE8F08B13B54FF000004FF00001AFF313
:1004E0000080BDE81C40704710B5203AC0F00B807A
:1004F000B1E81850203AA0E81850B1E81850A0E828
:100500001850BFF4F5AF5FEA027C24BFB1E8185081
:10051000A0E8185044BF18C918C0BDE810405FEAF1
:10052000827C24BF51F8043B40F8043B08BF70476D
:10053000D20728BF31F8023B48BF11F8012B28BF72
:1005400020F8023B48BF00F8012B70474FF0000233
:1005500000B5134694469646203922BFA0E80C50B9
:10056000A0E80C50B1F12001BFF4F7AF090728BF94
:10057000A0E80C5048BF0CC05DF804EB890028BF10
:1005800040F8042B08BF704748BF20F8022B11F039
:10059000804F18BF00F8012B7047704770477047B5
:1005A00000487047D4150120704770477047704766
:1005B00038B504460A4600206946AFF3008000289B
:1005C00008BF38BD02460099204600F075F80120AA
:1005D00038BD012000F08AB8F8B5AFF300800546B9
:1005E00000200C46102000BF0646A819A0420DD9D5
:1005F000324669460020AFF30080070008BF00F0D4
:1006000075F80098A04218BF0546C419FFF7C8FF47
:1006100005600746F01D20F007004619284600F047
:100620000AF8B44208BFF8BDA21B31463868BDE8DD
:10063000F84000F041B800210160C0E901107047A6
:100640001020704770B50446051FFFF7A9FF00682A
:10065000002C14BF446870BD002C18BFAC423CBFD6
:1006600020466468F8D301680A18AA4218BF45609A
:1006700003D12A6805461144016028684119A14246
:100680001CBF6C6070BD61686960216808442860A7
:1006900070BD10B500F00CF8006810BD10B5044630
:1006A00000F006F8046010BD00487047CC1501202A
:1006B00000487047CC150120034640688C4600284E
:1006C00018BF88423CBF03464068F8D318681844F6
:1006D000884207D00CF1030020F00700001D411AEA
:1006E000521A0146081D0A60FFF7ACBF10B500F0B2
:1006F00039F8BDE8104000F02FB870477546FFF795
:10070000D3FFAE4605006946534620F007008546F4
:1007100018B020B5FFF730FEBDE820404FF00006CE
:100720004FF000074FF000084FF0000B21F00701D9
:10073000AC46ACE8C009ACE8C009ACE8C009ACE81C
:10074000C0098D46704710B50446AFF300802046BF
:10075000BDE81040FFF79BBD002801D000F02AB88B
:100760007047000010B5012805D0002103A000F05B
:1007700027F8012010BD09A1F8E7000053494752AE
:10078000544D454D3A204F7574206F662068656161
:1007900070206D656D6F7279000000003A20486529
:1007A0006170206D656D6F727920636F7272757004
:1007B0007465640001491820ABBEFEE72600020004
:1007C00070B505460C460A2000E06D1C00F011F8DB
:1007D00035B128780028F8D102E0641C00F009F84F
:1007E00014B120780028F8D1BDE870400A20AFF39A
:1007F000008008B569468DF800000320ABBE08BD37
:1008000010B503F08DFF03F067FF03490860BDE8F2
:10081000104004F0C3B900001C0000201948DFEDAF
:100820001A0A0268001D92ED0F0A20EE200ABDEEA2
:10083000C00A10EE101A017010EE101A090A417069
:1008400010EE101A090C817010EE101A090EC1700A
:1008500092ED100A20EE200ABDEEC00A10EE101A2A
:10086000017110EE101A090A417110EE101A090CEC
:10087000817110EE101A090EC17101460822034859
:1008800000F06CBA1C00002000007A4408D300205D
:100890000548006890F83510032901D0042901D1DA
:1008A00003F053BA704700001C000020D948AA2169
:1008B000017055214170D8490A68116BD1ED000AC9
:1008C0009FEDD60A60EE800AFDEEE00A10EE903A47
:1008D0008370D1ED000A60EE800AFDEEE00A10EEB2
:1008E000903A1B0AC370D1ED000A60EE800AFDEE5B
:1008F000E00A10EE903A1B0C0371D1ED000A60EE95
:10090000800AFDEEE00A10EE903A1B0E4371D1ED25
:10091000010A60EE800AFDEEE00A10EE903A837163
:10092000D1ED010A60EE800AFDEEE00A10EE903A89
:100930001B0AC371D1ED010A60EE800AFDEEE00AE8
:1009400010EE903A1B0C0372D1ED010A60EE800AA2
:10095000FDEEE00A10EE903A1B0E4372D1ED020A52
:1009600060EE800AFDEEE00A10EE903A8372D1ED5F
:10097000020A60EE800AFDEEE00A10EE903A1B0AD1
:10098000C372D1ED020A60EE800AFDEEE00A10EEBD
:10099000903A1B0C0373D1ED020A60EE800AFDEE63
:1009A000E00A10EE903A1B0E43731368D3ED070A6A
:1009B00060EE800AFDEEE00A10EE903A8373136851
:1009C000D3ED070A60EE800AFDEEE00A10EE903AE1
:1009D0001B0AC3731368D3ED070A60EE800AFDEEAD
:1009E000E00A10EE903A1B0C03741368D3ED070A6B
:1009F00060EE800AFDEEE00A10EE903A1B0E4374A2
:100A00005368D3ED070A60EE800AFDEEE00A10EEAF
:100A1000903A83745368D3ED070A60EE800AFDEEC6
:100A2000E00A10EE903A1B0AC3745368D3ED070A2C
:100A300060EE800AFDEEE00A10EE903A1B0C0375A2
:100A40005368D3ED070A60EE800AFDEEE00A10EE6F
:100A5000903A1B0E43759368D3ED070A60EE800A47
:100A6000FDEEE00A10EE903A83759368D3ED070A25
:100A700060EE800AFDEEE00A10EE903A1B0AC375A4
:100A80009368D3ED070A60EE800AFDEEE00A10EEEF
:100A9000903A1B0C03769368D3ED070A60EE800A48
:100AA000FDEEE00A10EE903A1B0E4376D368D3EDCC
:100AB000070A60EE800AFDEEE00A10EE903A8376B7
:100AC000D368D3ED070A60EE800AFDEEE00A10EE6F
:100AD000903A1B0AC376D368D3ED070A60EE800A0A
:100AE000FDEEE00A10EE903A1B0C0377D368D3EDCD
:100AF000070A60EE800AFDEEE00A10EE903A1B0E47
:100B00004377D1ED030A60EE800AFDEEE00A10EEB5
:100B1000903A8377D1ED030A60EE800AFDEEE00A99
:100B200010EE903A1B0AC377D1ED030A60EE800AFB
:100B3000FDEEE00A10EE903A1B0C80F82030D1ED6B
:100B4000030A60EE800AFDEEE00A10EE903A1B0EFA
:100B500080F82130D1ED040A60EE800AFDEEE00A53
:100B600010EE903A80F82230D1ED040A60EE800A4F
:100B7000FDEEE00A10EE903A1B0A80F82330D1ED2A
:100B8000040A60EE800AFDEEE00A10EE903A1B0CBB
:100B900080F82430D1ED040A60EE800AFDEEE00A10
:100BA00010EE903A1B0E80F82530D1ED050A60EE6C
:100BB000800AFDEEE00A10EE903A80F82630D1ED82
:100BC000050A60EE800AFDEEE00A10EE903A1B0A7C
:100BD00080F82730D1ED050A60EE800AFDEEE00ACC
:100BE00010EE903A1B0C80F82830D1ED050A20EE6B
:100BF000800ABDEEC00A10EE101A090E80F8291006
:100C000092F8391080F82A1001462B22044800F08F
:100C1000A5B8000008D600201C00002000007A447F
:100C200098D30020054810B5006803F033FD03F0A9
:100C3000A1FFBDE8104003F079BD00001C000020BA
:100C4000F8B50A4C0E0A069D26706170110AA17053
:100C5000E270190A21716371290AA1712246E571B6
:100C60006B4602F1080100F0A5F9F8BD280000204C
:100C700010B500F0C1F805F081FB00F083F8BDE885
:100C8000104000F045B8000038B50446006801681F
:100C9000C9061FD5016840680090204602F0B8F8E8
:100CA0000D48844208D10D4D281D03F097FDFF2209
:100CB000291D204602F09AFB094884420AD10948BE
:100CC000054602F04DFC29462046BDE83840FF228B
:100CD00002F08CBB38BD000098D30020C4D60020A1
:100CE00050D30020CCD7002010B5044606488442DB
:100CF00001D1FFF7C9FF0548844203D1BDE8104088
:100D0000FFF7C2BF10BD000098D3002050D30020D1
:100D100070B50F4D0D48002428600E48C5F8040139
:100D200004EB841055F820100968CA6842F01002DC
:100D3000CA6005EB800155F82000FF22091D02F072
:100D400055FB641CE4B2022CEAD370BD98D300209A
:100D5000C4D6002050D3002002F058BB02F0A6BB3E
:100D6000FEE7000070B505462020FFF717FB04469C
:100D70002021FFF7EBFB024840F82540204670BDDC
:100D8000B4D6002003480021016041608160C16049
:100D900070470000B4D60020014800F074BA00008B
:100DA000D0D10020014800F06EBA0000D0D1002060
:100DB0000A4AA0F50070013808D0012808D002289E
:100DC00008D0032808D1D06804F082BF1068FBE780
:100DD0005068F9E79068F7E770470000B4D6002044
:100DE000014800F050BA0000F8D10020014800F09E
:100DF0004ABA0000F8D1002010B58AB000210120C5
:100E0000CDE906010591089044F22000009044F2DB
:100E10004000019044F26000029004914FF4814040
:100E20000E24039069460994154800F02BF908B187
:100E300000F09BF869461348059400F023F908B1C7
:100E400000F093F80E4800F059FC08B100F08DF85E
:100E50000C4800F053FC08B100F087F80221084864
:100E600000F096F808B100F080F80221054800F083
:100E70008FF8002801D000F078F80AB010BD00000B
:100E8000D0D10020F8D10020014800F0C5BC0000FE
:100E900040D40020014800F0BFBC0000E0D3002097
:100EA000014800F0B9BC0000A0D40020014800F0C7
:100EB000B3BC000060D50020014800F0ADBC0000CC
:100EC00000D5002001681823CAB2103AB2FBF3F231
:100ED000054B6FF30901032A9B5CC36500D9091D0B
:100EE00081650846704700001C84000810B5014663
:100EF00000208B698A6A4FF0C07453B1B3F5005F6C
:100F000015D072B1012A0CD0022A0AD0032A09D1C5
:100F100004E01AB1012A06D0022A03D1C96AC90124
:100F200000D5012010BDC96AA142FAD010BD002A27
:100F3000F7D0012AF2D0022AF3D0032AF3D010BD51
:100F400030B50468256825F4802525600468636051
:100F50008368402B036803D099600068C26030BD8D
:100F60009A600068C16030BD704772B6FEE700004D
:100F7000024940F2DC50086070470000340800402D
:100F800002494FF4FA6008607047000034080040DE
:100F900090F82020012A07D0022A05D0416A41F4A6
:100FA0008021416201207047006842690A43426122
:100FB00000207047F0B590F820500468A468012D17
:100FC00005D0022D03D0416A41F4802157E014F08E
:100FD000406F01D1E5004FD5C4F301640125A54060
:100FE0001D608D684FF4C0739DB1CE6835434E6867
:100FF00045EAC605066803EB0417F5514FF4C275C0
:10100000076805EB04150E697E51097D012905D09D
:1010100009E00E88CD6845EA4655EBE701684E5970
:1010200046F480764E511179D579567941EA0561B9
:1010300095792D0445EA062529434FF4C6760568BF
:1010400006EB0416A9511178D57841EA0561957827
:1010500052782D0445EA022211434FF4C475026808
:1010600005EB04155151006803EB0411425842F09E
:10107000010242500020F0BD416A41F4001141627A
:101080000120F0BD10B590F82020012A07D0022AD7
:1010900005D0416A41F480214162012010BD3B48E6
:1010A000D0F8002242F00102C0F80022D0F800225D
:1010B00022F47C52C0F80022D0F800224B6A42EAA7
:1010C0000322C0F800220A7D02F01F0301229A4089
:1010D000D0F81C329343C0F81C32CB69B3B9D0F8B6
:1010E0000C329343C0F80C328C894B6864F31F4375
:1010F0004C6900EBC404C4F840320C890B6864F3FB
:101100001F434C6900EBC404C4F84432CB69012B83
:1011100016D1D0F80C321343C0F80C320C884B684F
:1011200064F31F434C6900EBC404C4F840320C89DB
:10113000CB6864F31F434C6900EBC404C4F8443229
:101140008B69002BD0F804320ED01343C0F8043260
:101150000B69002BD0F8143208D01343C0F81432B6
:10116000096A012904D008E09343EFE79343F5E7C8
:10117000D0F81C121143C0F81C12D0F8001221F054
:101180000101C0F80012002010BD00000064004002
:10119000704770B590F82040012C05D0022C03D088
:1011A000416A41F4802128E0046809B32469A40756
:1011B00020D04FF4D874056804EB01142D5915F0B4
:1011C0000405956005682D591AD0ED08556005682D
:1011D0002C5904F00204D4604FF4DA74056804EB6F
:1011E00001142E5906F00F06082E0CD308250DE029
:1011F000E468DCE7416A41F400114162012070BDFE
:101200006D0D1560E3E72D5905F00F0515610568B3
:101210002D59C5F30725956105682C59240C546197
:101220004FF4DC72046802EB0112A4581C700468CD
:10123000A458240A5C700468A458240C9C700468A8
:10124000A258120EDA704FF4DE72046802EB01123B
:10125000A4581C710468A458240A5C710468A4583A
:10126000240C9C710468A258120EDA71006829B12E
:10127000016941F020010161002070BDC16841F0A9
:101280002001C160F8E72DE9F05F05460068002401
:101290004669D0F804908768D0F80CB0D0F810A058
:1012A000D0F81880F10748D0F90714D001218160E7
:1012B000B80703D5284600F04EFA0CE0780702D5AF
:1012C0004FF4006407E0380702D54FF4805402E081
:1012D000284600F03FFAF80516D529684FF48070CB
:1012E0008860B80503D5284600F037FA0CE0780589
:1012F00002D544F4005407E0380502D544F4804494
:1013000002E0284600F028FAF80316D529684FF4C1
:1013100080308860B80303D5284600F020FA0CE03E
:10132000780302D544F4004407E0380302D544F4BE
:10133000803402E0284600F011FA300707D55FEA52
:10134000CB6004D52968102044F40074C86070078D
:101350004FF0080707D55FEA0B7004D52868C7600F
:10136000284600F0A9F9B00706D52868C0688007AC
:1013700002D0284600F0A2F9700607D55FEACA60DD
:1013800004D52968102044F480640861B00607D5AC
:101390005FEA0A7004D528680761284600F0AAF9B8
:1013A000F00606D528680069800702D0284600F0BC
:1013B000A2F9B00308D55FEAC96005D529681020F5
:1013C0004860284600F098F9F00307D55FEA0970F5
:1013D00004D528684760284600F0C2F9300446D595
:1013E0005FEA497040D5F00504D55FEAC87001D0C6
:1013F00044F00104B00504D55FEA887001D544F0DB
:101400000204700504D55FEA487001D544F0040475
:10141000300529D518F0700F26D008F0700040284C
:1014200015D006DC102809D020280AD0302816D183
:101430000AE050280ED0602811D10EE044F00804D4
:101440000DE044F010040AE044F0200407E044F00A
:10145000400404E044F0800401E044F4807428680F
:10146000816921F070018161296804204860002CA5
:1014700005D0686A204368622846FFF789FEBDE808
:10148000F09F70B5040003D094F8200010B104E080
:10149000012070BD204600F081F82068016841F00D
:1014A0000101016000F05CFC0546052604E000F047
:1014B00057FC401B0A2811D820684068C007F6D0A6
:1014C0002068016821F00201016000F049FC054636
:1014D0000BE000F045FC401B0A2806D9606A40F486
:1014E0000030606284F82060D2E72068406880079E
:1014F000EFD4207E0128206801683DD021F08001D2
:101500000160607E01282068016838D021F0400128
:101510000160A07E01282068016833D021F02001FD
:101520000160E07E0128206801682ED041F01001A2
:101530000160207F01282068016829D021F008017E
:101540000160607F01282068016824D021F0040137
:101550000160D4E902010843D4E9041211430843AD
:101560006168491E08432168C8610020606201204B
:1015700084F82000002070BD41F08001C0E741F0F8
:101580004001C5E741F02001CAE721F01001CFE793
:1015900041F00801D4E741F00401D9E7F0B587B084
:1015A000044614216846FEF7D1FF3E4B3E48DFF863
:1015B000F0E01968D4F800C03B4A03250226092749
:1015C00010300024491CF4452AD11960012907D1A3
:1015D000016841F000710160006800F00070059042
:1015E000106840F0080010601068CDE9005600F067
:1015F0000800CDE9047069462C48CDE9024500F0A9
:101600008FFA00220521142000F054FC142000F071
:1016100043FC00220521152000F04CFC15203BE086
:10162000DFF88CE0F44539D1D0F800C04CF0806C84
:10163000C0F800C0D0F800C001290CF0806CCDF8D3
:1016400014C0196007D1016841F0007101600068A1
:1016500000F000700590106840F002001060106803
:1016600002AB00F0020005904FF44050CDE90006B7
:1016700083E8B00069460F4800F052FA00220521C5
:10168000402000F017FC402000F006FC002205215D
:10169000412000F00FFC412000F0FEFB07B0F0BD40
:1016A000006400401800002030380240000C024066
:1016B0000068004000040240704700001CB504466A
:1016C00000200090014601906B46084A2046FFF733
:1016D00060FD08B1FFF749FC0548844204D1034886
:1016E00069460068FFF764FB1CBD000034D600208B
:1016F000D0D10020704770477047000070B5044695
:1017000090F82000012804D0606A40F40020606254
:1017100018E0022084F820002068016821F001010F
:10172000016000F01DFB05460EE000BF00F018FB55
:10173000401B0A2808D9606A40F400306062052026
:1017400084F82000012070BD20684068C007EDD1FA
:10175000606270BD70477047704770477047704750
:1017600070472DE9F0410446876D00F0F9FA06460E
:1017700094F835000025022806D08020606584F8A2
:1017800034500120BDE8F0812068016821F0160185
:1017900001602068416921F080014161206C08B935
:1017A000A06C20B12068016821F008010160206868
:1017B000016821F0010101600CE000F0D1FA801B0A
:1017C000052807D920206065032084F8350084F8B7
:1017D0003450D7E720680068C007EED194F85C1059
:1017E0003F208840B860012084F8350084F83450E8
:1017F0000020C7E790F83510022903D08021416509
:1018000001207047052180F835100068016821F03B
:1018100001010160002070472DE9F84304464FF0B4
:101820000009CDF8009063484FF41651A56D00688B
:10183000B0FBF1F72E6894F85C10082000FA01F173
:1018400031420FD021680A6852070BD50A6822F08E
:1018500004020A6094F85C108840A860606D40F053
:101860000100606594F85C104FF0010808FA01F07F
:10187000304208D021684969090604D5A860606D26
:1018800040F00200606594F85C100420884030420B
:1018900008D021680968890704D5A860606D40F008
:1018A0000400606594F85C1010208840304218D025
:1018B00021680968090714D5A860206801684903F0
:1018C00004D50068000308D5A16C07E00168C905CC
:1018D00003D4016821F008010160216C09B12046A0
:1018E000884794F85C1020208840304231D021682D
:1018F0000968C9062DD5A86094F835000528206828
:10190000016806D0490347D5006800031DD4616C07
:101910001CE021F0160101602068416921F080017E
:101920004161206C08B9A06C20B12068016821F0E9
:101930000801016094F85C103F208840A86084F89A
:10194000358084F83490216D1FE0E16B09B12046A9
:101950008847606D00282BD0606DC00714D005202B
:1019600084F835002068016821F0010101600098C9
:10197000401C0090B84203D820680068C007F6D128
:1019800084F8358084F83490E16C002910D001B0DF
:101990002046BDE8F04308470168C905D5D4016871
:1019A00021F01001016084F8358084F83490CCE790
:1019B000BDE8F88310CF00202DE9F041044600F087
:1019C000CFF906465CB1022084F83500002584F882
:1019D00034502068016821F0010101600DE0012010
:1019E000BDE8F08100F0BCF9801B052805D9202056
:1019F0006065032084F83500F2E720680068C007BE
:101A0000F0D12268116820480140D4E9010318434D
:101A1000D4E903363343184363691843A369184371
:101A2000E3691843236A18430843616A042903D110
:101A3000D4E90B1319430843106020684069666AB3
:101A400020F0070130460E43012704280CD1A06A7C
:101A50000643E06A40B12046FFF748FA20B1402033
:101A6000606584F83570BAE7206846612046FFF764
:101A700029FA94F85C203F2191408160656584F8E3
:101A800035700020ACE700003F8010F02DE9F041F8
:101A90000446866D90F83400002501280DD0012001
:101AA00084F8340094F835700020012F07D084F8B2
:101AB000340002252846BDE8F0810220FBE702271A
:101AC00084F8357060652046FFF73AFA94F85C10A8
:101AD0003F208840B0602068016841F01601016035
:101AE000206C20B12068016841F008010160206885
:101AF000016841F001010160DCE7000070B50446B7
:101B000000F02EF90546601C02D004480078044419
:101B100000F026F9401BA042FAD370BD04CF00208C
:101B20002DE9F84FDFF8F8A10022012403254FF03A
:101B30000F090AF1040BAAF1040E00BF0B6804FAA6
:101B400002F63340B34270D10F7907F00307012F3B
:101B500001D0022F16D187684FEA420805FA08FC27
:101B600027EA0C07D1F80CC00CFA08FC4CEA070C69
:101B7000C0F808C04768B7430E79C6F30016964010
:101B80003E4346600E79F643B6070AD0C7684FEA6F
:101B9000420C05FA0CF6B7438E6806FA0CF63E4383
:101BA000C6600E7906F00306022E10D1D60800EBAF
:101BB0008608D8F8206057074FEAD76C09FA0CF767
:101BC000BE430F6907FA0CF73743C8F82070066860
:101BD0004FEA420C05FA0CF7BE430F7907F00307F2
:101BE00007FA0CF7374307604E6816F4403F1CD0E5
:101BF0004C4E376847F480473760366822F0030759
:101C000006F480460096484E07EB060CDCF80868A0
:101C100097073F0F09FA07F826EA0806DFF80C8154
:101C2000404503D14FF0000841E072E0DFF8008149
:101C3000404502D14FF0010839E0DFF8F880404517
:101C400002D14FF0020832E0DFF8EC80404502D1CB
:101C50004FF003082BE0DFF8E480404502D14FF05D
:101C6000040824E0DFF8D880404502D14FF0050891
:101C70001DE0DFF8D080404502D14FF0060816E0A5
:101C8000DFF8C480404502D14FF007080FE0DFF8CD
:101C9000BC80404502D14FF0080808E0DFF8B08072
:101CA000404502D14FF0090801E04FF00A0808FA58
:101CB00007F848EA0608CCF80888DAF800605746C2
:101CC000D1F804C09E435FEACC2C00D51E433E6091
:101CD000DBF800605F46D1F804C09E435FEA8C2CBD
:101CE00000D51E433E60DEF800607746D1F804C0A0
:101CF0009E435FEA8C3C00D51E433E60084F083F80
:101D00003E68D1F804C09E435FEACC3C00D51E4338
:101D10003E60521C102AFFF411AFBDE8F88F00009E
:101D2000083C0140443802400030014000000240BD
:101D30000004024000080240000C02400010024073
:101D40000014024000180240001C02400020024023
:101D5000002402400AB1816170470904FBE70000DA
:101D6000014880687047000004CF00200248816865
:101D7000027811448160704704CF00200B4810B5F1
:101D8000016841F400710160016841F48061016003
:101D9000016841F480710160032000F0ABF80F206E
:101DA00000F006F800F05CF8002010BD003C024096
:101DB00030B505461F4887B00024016841F0200176
:101DC0000160006806A900F02000009001A800F062
:101DD0003DF90498A8B100F059F940001649174A96
:101DE000B0FBF1F11648491E026040F2E732C0E94B
:101DF0000324C0E90114846100F026FD040003D02F
:101E000015E000F043F9E9E70D4800F05FFD04003C
:101E10000DD1372000F040F8102D07D200222946BE
:101E2000372000F047F80748056000E0012407B0BC
:101E3000204630BD4038024040420F0000140040B0
:101E4000C0D5002008CF002010B501F083FBBDE80D
:101E500010400021014800F06BBF0000C0D20020FC
:101E60000C4882B0016841F480410160006800F4D0
:101E7000804000900748001F016841F080510160D8
:101E80000068002200F0805000900F21901E02B0E8
:101E900000F010B844380240002809DB00F01F02AF
:101EA000012191404009800000F1E020C0F80011BC
:101EB00070470000F0B40E4B1B680C46C3F30223BE
:101EC000C3F10705042D00D90425191D072901D2E6
:101ED000002300E0DB1E012606FA05F1491E214021
:101EE00099409E40761E16403143F0BC03F0C4B9C1
:101EF0000CED00E0064900F0070208684FF6FF030A
:101F0000184040EA0220034A10430860704700006E
:101F10000CED00E00000FA052DE9F0470E46050043
:101F200065D0DFF81481D8F80000F7B200F00F0098
:101F3000B04207D288F80070D8F8000000F00F0017
:101F4000B04254D128683D4C810712D5400703D5D3
:101F5000206840F4E05020602878000703D520680E
:101F600040F4604020602068A96820F0F000084339
:101F700020602878C0072DD03049686808390128CA
:101F800012D0022813D0032811D00968890700292C
:101F90002DDA216821F0030101432160FFF7E0FE03
:101FA000814641F2883A0EE009688903EFE7096843
:101FB0008901ECE7FFF7D4FEA0EB0901514502D9F6
:101FC0000320BDE8F0872068696800F00C00B0EBE2
:101FD000810FEFD1D8F80010404601F00F01B14257
:101FE00007D90770006800F00F00B04201D001204F
:101FF000E7E72878400705D52068E96820F4E05035
:10200000084320602878000706D52068296920F455
:10201000604040EAC100206000F058F82168084A9A
:10202000C1F30311515CC8400649086006480068C6
:10203000FFF7BEFE0020C4E7003C02400838024023
:102040002484000810CF002008CF00200F22026057
:102050000C4A136803F003034360136803F0F003B2
:102060008360136803F4E053C36012684FF4E053D5
:1020700003EAD20202610448006800F00F00086021
:102080007047000008380240003C024004480549FF
:1020900000680968044AC1F38221515CC840704756
:1020A00010CF002008380240348400080448054955
:1020B00000680968044AC1F34231515CC840704766
:1020C00010CF00200838024034840008154810B5AD
:1020D000006810F00C02144813D01449042A0FD0E1
:1020E000082A0ED10F4C241F2268236802F03F02F9
:1020F0005B0207D52068C0F38810A0FB010106E051
:10210000084610BD2168C1F38811A1FB000100231E
:10211000FEF773F92168C1F30141491C4900B0FB86
:10212000F1F010BD083802400024F400001BB70095
:102130002DE9F84F04006ED02078DFF84C93C007EB
:10214000A9F104054AD009F104000168C1F3810135
:10215000012908D00068C0F3810002280AD1D9F80B
:102160000000400206D52868800337D56068002843
:10217000E1D033E06068B0F5803F10D0B0F5A02F1B
:10218000286810D020F480302860286820F480204F
:1021900028606068A8B1FFF7E3FD06460DE02868F7
:1021A00040F48030F4E740F480202860F7E700BF77
:1021B000FFF7D6FD801B642873D828688003F7D505
:1021C0000CE0FFF7CDFD064605E000BFFFF7C8FDB8
:1021D000801B6428F0D828688003F7D42078DFF8C3
:1021E000AC8280074FF0000A3ED5A748001D016869
:1021F00011F00C0F08D00068C0F3810002280BD149
:10220000D9F80000400207D42868800716D5E06896
:10221000012800D112E033E1E068B8B10120C8F82C
:102220000000FFF79DFD064605E000BFFFF798FDA3
:10223000801B0228C0D828688007F7D52868216944
:1022400020F0F80040EAC10028600DE0C8F800A0C6
:10225000FFF786FD064604E0FFF782FD801B02289B
:102260001FD828688007F7D42078000722D5864F2A
:1022700087486169703771B101210160FFF770FD16
:10228000064604E0FFF76CFD801B022809D8386879
:102290008007F7D50EE0C0F800A0FFF761FD064605
:1022A00005E082E0FFF75CFD801B02287DD83868DE
:1022B0008007F7D42078400768D5DFF8CCB1002735
:1022C0000BF13C0BDBF80000C0000BD4DBF8001076
:1022D00041F08051CBF80010DBF80000012700F03E
:1022E000805000906B4E3068C00510D4306840F4C8
:1022F00080703060FFF734FD009005E0FFF730FD9F
:102300000099401A022850D83068C005F6D55E4EB4
:10231000A0686C3601280FD00528306810D020F056
:1023200001003060306820F004003060A068B8B16F
:10233000FFF716FD00900FE0306840F00100F4E771
:1023400040F004003060F7E7FFF70AFD0099411AFA
:1023500041F28830814266D830688007F4D50EE0BB
:10236000FFF7FEFC009007E0FFF7FAFC0099411A26
:1023700041F28830814256D830688007F4D42FB1BA
:10238000DBF8001021F08051CBF80010A069C8B331
:102390003D49091D0968C1F3810102294AD002287B
:1023A000504607D0C8F8600000E03CE0FFF7D8FCDA
:1023B00004463BE04746C8F86000FFF7D1FC0646FC
:1023C00005E000BFFFF7CCFC801B02282BD8286853
:1023D0008001F7D4D4E907010843A16A2E4A4908CD
:1023E00002EB0141626A41EA8211084394F82C1021
:1023F00040EA0161C9F8001001203866FFF7B0FC1F
:10240000044606E03EE000BFFFF7AAFC001B0228DE
:1024100009D828688001F7D534E000BFFFF7A0FC99
:10242000001B022802D90320BDE8F88F286880012C
:10243000F4D427E00128F7D0D9F80000E26900F4CD
:10244000800191421CD1226A00F03F01914217D1D4
:1024500047F6C071626A0140B1EB821F10D1A26AD7
:102460004FF0FF3300F4403103EB5202B1EB024F67
:1024700006D194F82C1000F07060B0EB016F01D021
:102480000120D1E70020CFE7043802400000474296
:10249000800E4742007000400000FFFF70B504004E
:1024A00009D0606A002540B125616561A56294F894
:1024B000510040B10CE0012070BD6068B0F5827F32
:1024C000F4D0E561F2E784F85050204600F044F87B
:1024D000022084F851002068016821F04001016069
:1024E000A088218900F4827001F404410843A18985
:1024F00001F400610843217C01F002010843217DC1
:1025000001F001010843218B01F400710843217F90
:1025100001F03801084394F8201001F080010843CD
:10252000218D01F40051084321680860A06904214D
:1025300001EA104094F8241001F0100108432168CA
:1025400048602068C16921F40061C16165650120AE
:1025500084F85100002070BD10B586B004461421E7
:102560006846FDF7F3FF14492068884221D11348DB
:102570000021026842F480120260006800F48010BA
:1025800005900E481438026842F02002026000688C
:1025900000F0200005904FF4607000900220CDE91B
:1025A0000101032003900520049069460448FFF7C9
:1025B000B7FA06B010BD0000005001404438024098
:1025C000001402402DE9FF4F81B01D46934604469A
:1025D0004FF001090E9EFFF7C3FB074694F8510028
:1025E0006168012806D0B1F5827F3CD1A168C9BBE2
:1025F000042838D10298002871D0BBF1000FFBD01D
:10260000002DF9D094F8500001282CD04FF0010A89
:1026100084F850A094F85100042802D0052084F8D2
:1026200051004FF00008C4F85480C4F838B0E58772
:10263000A58702992163E586A586C4F84080C4F881
:10264000448020680168490603D4016841F04001D4
:102650000160E068B0F5006F606808D0F0B3012D4C
:1026600049D081E0FFE7022005B0BDE8F08F08B156
:10267000012D39D1206B21680088C860206B801C37
:102680002063E08E401EE0862EE020688168890786
:102690000FD5E18E69B1B9F1010F0AD1216B09881B
:1026A000C160206B801C2063E08E401EE0864FF0EE
:1026B000000920688168C9070CD0E18F51B1C0685A
:1026C000A16B0880A06B801CA063E08F401EE08798
:1026D0004FF00109FFF744FBC01B01E00BE067E08E
:1026E000B04201D3701C50D1E08E0028CDD1E08FD4
:1026F0000028CAD13EE0206B216800780873206B67
:10270000401C2063E08E401EE0862DE0206881683A
:1027100089070FD5E18E69B1B9F1010F0AD1216B9B
:1027200009780173206B401C2063E08E401EE08618
:102730004FF0000920688168C9070CD0E18F51B1C2
:10274000C068A16B0870A06B401CA063E08F401EA6
:10275000E0874FF00109FFF703FBC01BB04202D333
:10276000701C01D011E086B1E08E0028CED1E08F40
:102770000028CBD13A463146204601F03DFA50B10F
:102780002020606584F8508012E084F851A084F81D
:102790005080032068E7A06818B92068C168806885
:1027A000009084F851A084F85080606D0028F1D02A
:1027B000012059E77047704770B590F83C20012A16
:1027C00032D0012480F83C40022280F83D2003688A
:1027D0005A689D6822F070060A6832435A60134BAB
:1027E00002689A4214D0B2F1804F11D0104B9A4235
:1027F0000ED0104B9A420BD00F4B9A4208D00F4B81
:102800009A4205D00E4B9A4202D00E4B9A4204D106
:10281000496825F080031943916080F83D4000210C
:1028200080F83C10084670BD022070BD00000140D9
:102830000004004000080040000C0040000401407B
:10284000004001400018004010B5040003D094F887
:102850003D0010B107E0012010BD002084F83C00CD
:10286000204600F01FF8022084F83D00211D20685A
:1028700001F038FB012084F8460084F83E0084F81B
:102880003F0084F8400084F8410084F8420084F856
:10289000430084F8440084F8450084F83D0000209B
:1028A00010BD000008B500680649884208D10648F6
:1028B000016841F004010160006800F0040000902C
:1028C00008BD0000000800404038024090F83D106C
:1028D000012901D001207047022180F83D100168D4
:1028E000CA6842F00102CA6000681149884214D0E7
:1028F000B0F1804F11D00F4988420ED00E49884266
:102900000BD00E49884208D00D49884205D00D49A8
:10291000884202D00C49884204D1816801F0070145
:10292000062903D0016841F00101016000207047D1
:10293000000001400004004000080040000C00407E
:1029400000040140004001400018004070B50446FA
:1029500090F83C000025012817D0012684F83C603F
:10296000022084F83D002068826822F0770222F479
:102970007F4282600868502838D00DDC20284FD074
:1029800005DC90B3102811D14AE0022070BD302838
:1029900046D040280AD13BE060282FD070280DD0C7
:1029A000B0F5805F03D0B0F5005F12D0012584F848
:1029B0003D60002084F83C00284670BDCB68D1E91A
:1029C0000121206801F003FB2068816841F0770154
:1029D00009E0CB68D1E90121206801F0F8FA20680C
:1029E000816841F480418160E1E719E0CA68496883
:1029F000206801F0C1FB5021206806E0CA684968E0
:102A0000206801F0CAFB6021206801F0EAFACEE7F5
:102A1000CA684968206801F0AFFB40212068F4E7EC
:102A2000226801461046F0E770472DE9F041044660
:102A30000068C66805694FF00007A90713D5B107FC
:102A400011D5F91E01610120207720688069800777
:102A5000204602D0FFF7E8FF04E000F0BFF8204670
:102A600000F064F92777680716D5700714D5216838
:102A70006FF004000861022020772068806910F45C
:102A8000407F204602D0FFF7CFFF04E000F0A6F819
:102A9000204600F04BF92777280715D5300713D5C6
:102AA00021686FF008000861042020772068C06961
:102AB0008007204602D0FFF7B7FF04E000F08EF851
:102AC000204600F033F92777E80616D5F00614D52E
:102AD00021686FF010000861082020772068C06925
:102AE00010F4407F204602D0FFF79EFF04E000F084
:102AF00075F8204600F01AF92777E80708D0F007A4
:102B000006D021686FF001000861204600F074F9DA
:102B1000280608D5300606D521686FF080000861C8
:102B20002046FFF747FE680608D5700606D52168DF
:102B30006FF040000861204600F068F9A8060AD549
:102B4000B00608D521686FF0200008612046BDE876
:102B5000F041FFF730BEBDE8F081000010B586B04F
:102B6000044614216846FDF7F1FC2368164C002149
:102B700016480222A34210D1036843F00203036007
:102B8000006800F00200059020200090CDE90121AE
:102B9000CDE9031269460E4812E00E4CA34211D152
:102BA000036843F008030360006800F00800059024
:102BB000A0140090CDE90121CDE903126946064831
:102BC000FEF7AEFF06B010BD0004004030380240F2
:102BD0000004024000080040000C0240704770B53D
:102BE000044690F83C0000260D4601280FD0012035
:102BF00084F83C006AB1042A1DD0082A2FD00C2A80
:102C00003FD00126002084F83C00304670BD0220F1
:102C100070BD206801F0EEF92068816941F008017B
:102C200081612068816921F00401816120688169E6
:102C30002A69114311E0206801F00CFA20688169CB
:102C400041F4006181612068816921F480618161C2
:102C5000206881692A6941EA02218161D2E72068FE
:102C600001F02EFA2068C16941F00801C1612068B5
:102C7000C16921F00401C1612068C1692A69114359
:102C800011E0206801F050FA2068C16941F4006148
:102C9000C1612068C16921F48061C1612068C16996
:102CA0002A6941EA0221C161ACE710B5040003D0F2
:102CB00094F83D0010B107E0012010BD002084F819
:102CC0003C00204600F01EF8022084F83D00211D43
:102CD000206801F007F9012084F8460084F83E00DE
:102CE00084F83F0084F8400084F8410084F84200F2
:102CF00084F8430084F8440084F8450084F83D00DB
:102D0000002010BD08B500680649884208D1064871
:102D1000016841F002010160006800F002000090CB
:102D200008BD000000040040403802407047000029
:102D300010B50446022249B104290ED0082913D047
:102D400094F84100012816D0012010BD94F83E00EF
:102D50000128F9D184F83E200FE094F83F000128C3
:102D6000F2D184F83F2008E094F840000128EBD12C
:102D700084F8402001E084F841200122206801F01D
:102D800019F916492068164A884201D0904203D1A9
:102D9000436C43F4004343642068884213D0B0F18D
:102DA000804F10D00F4988420DD00F4988420AD079
:102DB0000E49884207D0904205D00D49884202D082
:102DC0000C49884204D1816801F00701062903D02B
:102DD000016841F001010160002010BD00000140C8
:102DE000000401400004004000080040000C0040C6
:102DF000004001400018004000680349884201D1AA
:102E0000FEF7B4BF704700000014004070477047E1
:102E100010B504460068406994F84110C0F3C01032
:102E2000212911D180B12068143050E8001F21F011
:102E3000800140E80012002AF5D1A06B08B1FEF72E
:102E400090FC204601F099FA2068406994F84210FD
:102E5000C0F38010222911D180B12068143050E8CD
:102E6000001F21F0400140E80012002AF5D1E06B7C
:102E700008B1FEF776FC204601F058FA002010BD9C
:102E800070470000F8B5016804460868CA684B69D5
:102E900010F00F0F4FF0000559D003F0010602F4B7
:102EA0009077374365D0C10705D0D10503D5616C54
:102EB00041F001016164410705D5D90703D0616C78
:102EC00041F002016164810705D5D90703D0616C27
:102ED00041F004016164010707D502F0200131438C
:102EE00003D0616C41F008016164616C00293AD043
:102EF000800604D5900602D5204601F04CFA2068E1
:102F00004069616CC0F38010090700D460B32046AB
:102F100001F00CFA20684069400621D52068143081
:102F200050E8001F21F0400140E80012002AF5D1CE
:102F3000E06BA8B172490165E06BFEF75BFC00280D
:102F400011D0E06B016D01B0BDE8F0400847830689
:102F50000FD593060DD52046BDE8F84001F01BBA09
:102F60002046FFF78DFFF8BD2046FFF789FF656417
:102F7000F8BD266B2023012E7ED1C6067CD5D60651
:102F80007AD508684868009048694FF00206400604
:102F90004DD5E26B106840684FF480770004000C58
:102FA0003AD0A18D814237D9E085D069B8422DD081
:102FB00020680C3050E8001F21F4807140E80012B6
:102FC000002AF5D12068143050E8001F21F00101DB
:102FD00040E80012002AF5D12068143050E8001FA4
:102FE00021F0400140E80012002AF5D184F8423077
:102FF000256320680C3050E8001F21F0100140E8E4
:103000000012002AF5D1E06BFEF7ABFB6663A08DE2
:10301000E18D401A81B206E0A18D8142A8D1D0692C
:10302000B842A5D166632046FFF7F1FEF8BDA08D3A
:10303000E18D401A81B2E08D0028F7D00029F5D04B
:1030400020680C3050E8002F22F4907240E80027EE
:10305000002FF5D12068143050E8002F22F0010233
:1030600040E80027002FF5D184F84230256320681E
:103070000C3050E8002F00E006E022F0100240E89B
:103080000023002BF3D1CDE705062BD5150629D556
:1030900094F841002128C9D1A068B0F5805F01D122
:1030A0002069B0B1206A411C216221680078486023
:1030B000E08C401E0004000CE084B7D12068C16899
:1030C00021F08001C1602068C16841F04001C16009
:1030D000F8BD206A0088C0F308004860206A801CA0
:1030E0002062E5E74006F3D55006F1D5CA682046D0
:1030F00022F04002CA6084F8413000F019FAF8BDAD
:10310000E541000870B5040004D094F841000025A2
:1031100010B106E0012070BD84F84050204600F058
:1031200023F8242084F841002068C16821F400516C
:10313000C160204601F090F92068016921F49041B6
:1031400001612068416921F02A0141612068C1685C
:1031500041F40051C1606564202084F8410084F886
:1031600042006563002070BD2DE9F04F87B0054631
:1031700014216846FDF7EAF99348DFF848821038D1
:10318000D5F800C0DFF840A2022203210823DFF8AF
:103190003CE2002407154FF040094FF02066C4457B
:1031A00040D1DAF8008048F08048CAF80080DAF8A8
:1031B00000C00CF0804CCDF814C0D0F800C04CF02A
:1031C000100CC0F800C0006800F010000590CDE9B8
:1031D0000313C8018DE8150069467046FEF7A0FC90
:1031E000DFF8F0817A494046C0E90347C8F8144047
:1031F000C8F81840C8F81C40C8F8204088E84202C7
:10320000C8F82440FEF7D8FB08B1FDF7AEFEC5F8BC
:103210003880002205215220C8F83850FEF74AFEB7
:10322000522062E0DFF8B081C44563D1DAF8008053
:10323000A34648F00048CAF80080DAF800C00CF055
:10324000004CCDF814C0D0F800C04CF0100CC0F801
:1032500000C0006800F0100005908DE81600CDE970
:10326000031369467046FEF75BFCDFF86881584936
:1032700008F1600840461839C0E90347C8F814400F
:10328000C8F81840C8F81C40C8F8204088E8420236
:10329000C8F82440FEF790FB08B1FDF766FE4D4CE0
:1032A0004B48C5F83880C0347830C8F83850C4E985
:1032B0000006C4F808B0C4E903B7C4F814B0C4F8F1
:1032C00018B0C4F81CB0C4F820B02046C4F824B02C
:1032D000FEF772FB08B1FDF748FEEC630022052102
:1032E0005320A563FEF7E6FD5320FEF7D5FD07B09A
:1032F000BDE8F08FDFF8E480C445F8D1DFF8C8C03E
:10330000A2460CF1040CDCF8008048F02008CCF850
:103310000080DCF800C00CF0200CCDF814C0D0F810
:1033200000C04CF0400CC0F800C0006800F0400045
:103330000590CDE903134FF484408DE815006946EC
:103340002748FEF7EDFBDFF8A08026494046C0E99C
:103350000347C8F81440C8F81840C8F81C40C8F81B
:10336000204088E84202C8F82440FEF725FB08B157
:10337000FDF7FBFD1C4C1B48C5F8388060347838DD
:10338000C8F83850C4E90006C4F808A0C4E903A787
:10339000C4F814A0C4F818A0C4F81CA0C4F820A055
:1033A0002046C4F824A0FEF707FB08B1FDF7DDFDB9
:1033B000EC63002205214720A563FEF77BFD472033
:1033C00093E70000007800404038024000100240BF
:1033D00028600240E0D30020007C0040001401403F
:1033E00000180240A064024000D5002090F842304E
:1033F000202B01D00220704721B11AB100230363B2
:1034000001F0B0B801207047704770472DE9F843CC
:10341000044690F84100984616460D46202802D0F2
:103420000220BDE8F88385B17EB1002060642120D0
:1034300084F84100FEF794FCA6848146E684A068E7
:103440002027B0F5805F02D003E00120E9E7206982
:1034500010B12E4600250EE000260CE0802120460B
:1034600001F0D0F8A8B9C6B116F8010B2168486080
:10347000E08C401EE084E08C4B464FF00002CDF81B
:1034800000800028EAD14FF04001204601F0BAF850
:1034900040B184F841700320C3E735F8020BC0F354
:1034A0000800E3E784F841700020BAE770B50446ED
:1034B00090F84100202801D0022070BD01B3FAB17C
:1034C0002162A284E28400206064212384F84130D8
:1034D000A56B144BEB63A56B134B2B64A56B134BC4
:1034E000EB64A36B186520681346A56B021D284684
:1034F000FEF7CCFA30B110206064202084F841003F
:10350000012070BD21686FF0400008602068143011
:1035100050E8001F41F0800140E80012002AF5D178
:10352000002070BDE142000823430008F341000879
:1035300070477047FEE7000010B51820FCF72EFF1B
:1035400004461821FDF702F801480460204610BD2A
:10355000A80000200148002101607047A800002059
:103560004178522952D1B0F9021000EE101A2A49BE
:10357000F8EEC00A9FED260A096820EE801ADFEDFA
:10358000250A21EE201A81ED031AB0F9042001EE7C
:10359000102AB8EEC11A21EE001A21EE201A81ED90
:1035A000041AB0F9062001EE102AB8EEC11A21EE75
:1035B000001A61EE200AC1ED050A027B532A25D1CB
:1035C00030F90D2F00EE902AF8EEE00A20EE801A76
:1035D000DFED120A21EE201A81ED001AB0F9022067
:1035E00001EE102AB8EEC11A21EE001A21EE201ABF
:1035F00081ED011AB0F9040001EE100AB8EEC11A0B
:1036000021EE000A20EE200A81ED020A7047000038
:10361000000000380000FA44A800002000003443F5
:1036200010B5642305220E490E48FDF795FB4FF4B3
:103630007A70FEF763FA0A49642305220A310948C1
:10364000FDF78AFB40F6B830FEF758FA04496423C8
:103650000522BDE810400F310248FDF77DBB000098
:10366000AC00002050D300200F4810B50D49016078
:103670000321416000214FF400228160C0E9031260
:103680004FF440124261017641768176C17601772E
:103690004177FDF7F6FE002803D0BDE81040FDF7A6
:1036A00064BC10BD00640040D0D100200F4810B5AC
:1036B0000D4901600321416000214FF40022816027
:1036C000C0E903124FF440124261017641768176DF
:1036D000C17601774177FDF7D4FE002803D0BDE81D
:1036E0001040FDF742BC10BD00680040F8D100203A
:1036F0001D4808B5016841F480010160016801F4CA
:1037000080010091016841F400110160006800220D
:1037100000F40010009005210B20FEF7CBFB0B20DE
:10372000FEF7BAFB002205210C20FEF7C3FB0C209C
:10373000FEF7B2FB002205211120FEF7BBFB112092
:10374000FEF7AAFB002205213920FEF7B3FB392042
:10375000FEF7A2FB002205214520FEF7ABFBBDE8EA
:1037600008404520FEF798BB3038024010B5AAB09B
:103770001C2221496846FCF7B7FE0021684603F089
:10378000D9F91E4C1C491C2220601C3107A8FCF7EB
:10379000ABFE002107A803F0CDF9174960601C2299
:1037A00038310EA8FCF7A0FE00210EA803F0C2F9E4
:1037B0001149A0601C22543115A8FCF795FE002188
:1037C00015A803F0B7F90C49E0601C2270311CA861
:1037D000FCF78AFE00211CA803F0ACF90649206121
:1037E0001C228C3123A8FCF77FFE002123A803F0C4
:1037F000A1F960612AB010BD6083000800000020BC
:10380000F0B587B014216846FCF7A0FE31480024CB
:10381000016841F010010160016801F0100105919B
:10382000016841F002010160016801F002010591A7
:10383000016841F040010160016801F0400105911B
:10384000016841F001010160016801F00101059189
:10385000016841F008010160016801F0080105916B
:10386000016841F004010160016801F00401059163
:10387000016841F080010160016801F0800105915B
:10388000016841F0200101600068134E00F0200043
:10389000059001223C213046FEF75CFA0F4F0022D2
:1038A00040213846FEF756FA3C2000900125CDE92C
:1038B0000154694630460394FEF732F940200090E7
:1038C000CDE90154694638460394FEF729F907B05B
:1038D000F0BD000030380240001C024000140240DD
:1038E000104810B50E4901604FF48271416000210B
:1038F0008160C1604FF400720161C0E9051230229D
:10390000C0E90721416281620A21C162FEF7C6FD5A
:10391000002803D0BDE81040FDF727BB10BD000014
:103920000050014020D2002010B58AB00024079436
:103930001C2168460894FCF709FE164814490160EA
:10394000A021C0E901144FF47A71C0E90314846125
:10395000FFF7ABF908B1FDF708FB079407A90D487D
:103960000894FEF729FF08B1FDF7FFFA6020CDE9C2
:10397000000402940422694606480494FFF72FF9D4
:1039800008B1FDF7F2FA0348FFF7E8F80AB010BDF6
:103990000004004078D2002010B58EB000240794B7
:1039A000089409940A940B941C2168460C94FCF723
:1039B000CDFD1E481C4901605321C0E9011444F6A5
:1039C0001F61C0E903148461FEF73EFF08B1FDF7F3
:1039D000CCFA4FF48050079007A91448FEF7B6FFC1
:1039E00008B1FDF7C2FA1148FFF75FF908B1FDF71A
:1039F000BCFA0B940BA90D480C94FEF7DDFE08B140
:103A0000FDF7B3FA6020CDE9000402940022694674
:103A100006480494FFF7E3F808B1FDF7A6FA034857
:103A2000FFF79CF80EB010BD00080040C0D2002087
:103A30000C4810B50A4901604FF41651416000214D
:103A400081600C22C160C0E904128161C161FFF78D
:103A500059FB002803D0BDE81040FDF786BA10BD21
:103A60000078004008D300200C4810B50A490160D6
:103A70004FF4E1314160002181600C22C160C0E956
:103A800004128161C161FFF73DFB002803D0BDE84E
:103A90001040FDF76ABA10BD007C004050D30020F2
:103AA0000C4810B50A4901604FF4E1314160002132
:103AB00081600C22C160C0E904128161C161FFF71D
:103AC00021FB002803D0BDE81040FDF74EBA10BD21
:103AD0000014014098D30020FEE7FEE790ED041AA1
:103AE00080ED051AD0ED030AC0ED040A90ED090A35
:103AF000D0ED081A30EE610A80ED030A90F830101C
:103B000011B101292DD048E090ED061A71EE001A8E
:103B1000C0ED061A90ED071AF4EEC11AF1EE10FA94
:103B200001DD80ED061AD0ED061AB1EE411AF4EE71
:103B3000C11AF1EE10FA01D280ED061A90ED001ACA
:103B4000D0ED021A90ED062A21EE001A30EE600A3E
:103B5000D0ED010A01EE821A00EE801A80ED0A1AF9
:103B60001BE070EE601A90ED002AF0EE002A61EE84
:103B7000821AB0EE402A00EEE22A72EE010A90EDBF
:103B8000021A41EE201AD0ED010A40EE801A90EDA3
:103B90000A0A31EE800A80ED0A0AD0ED0A0A90ED99
:103BA0000B0AF4EEC00AF1EE10FA01DD80ED0A0A0C
:103BB000D0ED0A0AB1EE400AF4EEC00AF1EE10FAB6
:103BC00001D280ED0A0A704710B53420FCF7E6FBFD
:103BD00004463421FCF7BAFC204610BD80ED000AF3
:103BE000C0ED020A80ED011AC0ED071A80ED0B2A24
:103BF00080F8301070470000F8B515460E460B46A9
:103C0000009204460122022100F02CF8A0B91348CA
:103C100013490068B0FBF1F04FF47A71484300900B
:103C20006068B0F5827F0DD13346002280212046A6
:103C3000009500F017F870B1606D40F020006065ED
:103C40000320F8BD009830B1401E009020688068C5
:103C5000C0430006F6D50020F8BD000010CF0020BC
:103C600000366E012DE9F8431E469146884604460B
:103C7000089DFEF775F8401B351AFEF771F80746E8
:103C800026480068C0F3CB3068430AE0701C09D0B6
:103C9000FEF766F8C01BA8420FD275B10098B8B302
:103CA000401E00902068816838EA010033D000216E
:103CB0004945EBD10020BDE8F8832068416821F038
:103CC000E00141606068B0F5827F0BD1A068B0F57B
:103CD000004F02D0B0F5806F04D12068016821F058
:103CE00040010160A06AB0F5005F09D12068016859
:103CF00021F4005101602068016841F40051016025
:103D0000012084F85100002084F850000320D2E7FD
:103D1000FFE70025C6E70121CAE7000010CF002019
:103D2000012002F0FBFEFBE702F02FFB052002F072
:103D3000F5FEF9E708B503F0F9FB0090FCF76EFD1E
:103D40006421684603F06EFAF8E710B5034690F870
:103D500036000B280DD2DFE800F0060D12171C21EB
:103D6000260C0C2B3000184601F0E6F9002083F8F1
:103D7000380010BDBDE81040184601F049B9BDE853
:103D80001040184601F006B8BDE81040184601F092
:103D900037B8BDE81040184601F078B8BDE81040CB
:103DA000184601F0B9B8BDE81040184601F0FAB85D
:103DB000BDE81040184600F0A7BFBDE81040184607
:103DC00001F062B908B503F0B1FB0090FCF760FDAB
:103DD0000A21684603F026FAF8E708B503F0A6FBC7
:103DE0000090FCF763FD6421684603F01BFAF8E7D6
:103DF00008B503F09BFB0090FCF714FF0521684613
:103E000003F010FAF8E7000010B5502080F3118895
:103E1000BFF34F8FBFF36F8F03F08EFB18B10449D0
:103E20004FF080500860002080F3118810BD000022
:103E300004ED00E030B593B030216846FCF786FB16
:103E400014210CA8FCF782FB1D480025016841F0F5
:103E500080510160006800F080501190194801689D
:103E600041F4404101600068022400F44040119098
:103E700001200090000401908001CDE90640062059
:103E80000890A820CDE9090404200B906846FEF7AD
:103E90004FF908B172B6FEE70CA90F2081E8310096
:103EA0004FF4A0500F904FF48050109005210CA8B3
:103EB000FEF732F8002801D072B6FEE713B030BD2D
:103EC00040380240007000400248016841F470012F
:103ED0000160704788ED00E00148FEF7A6BD0000D4
:103EE000C0D50020F0B50268274B284D284E294F39
:103EF000294C4FF0804C984209D0604507D0A84229
:103F000005D0B04203D0B84201D0A04204D122F083
:103F1000700E4A6842EA0E0298421BD0604519D0E2
:103F2000A84217D0B04215D0B84213D0A04211D049
:103F30001A4DA8420ED01A4DA8420BD0194DA842D6
:103F400008D0194DA84205D0184DA84202D0184DEE
:103F5000A84203D122F44075CA682A434D6922F071
:103F600080022A438D68C5620D688562984201D03F
:103F7000A04201D109690163016841F004010160B7
:103F8000012141610260F0BD0000014000040040D9
:103F900000080040000C00400004014000400140C7
:103FA000004401400048014000180040001C00404F
:103FB0000020004010B501F01F030121046A994060
:103FC0008C430462016A9A401143016210BD10B52E
:103FD000846842EA032224F47F440A432243826035
:103FE00010BD826822F070020A4342F0070181602E
:103FF00070470000F0B5036A026A22F00102026213
:1040000042688469124E24F073050C682C4323F037
:1040100002058B682B430D4DA84201D0B04205D15B
:1040200023F00807CB683B4323F00403A84201D0E8
:10403000B04205D14D6922F4407215438A692A4382
:1040400042608461496841630362F0BD0000014041
:1040500000040140F0B5026A036A23F01003036212
:10406000436884690D6824F4E64444EA05248D68B5
:1040700022F0200242EA05120F4D104EA84201D054
:10408000B04206D1CF6822F0800242EA071222F045
:104090004002A84201D0B04207D14D6923F44063E9
:1040A00043EA85038D6943EA850343608461496877
:1040B00081630262F0BD0000000001400004014085
:1040C000F0B5026A036A23F4807303624368C4692B
:1040D00022F4007224F073050C68124E2C438D6894
:1040E00042EA05220E4DA84201D0B04206D1CF6867
:1040F00022F4006242EA072222F48062A84201D040
:10410000B04207D14D6923F4405343EA05138D694A
:1041100043EA05134360C4614968C1630262F0BDAC
:10412000000001400004014030B5046A026A22F434
:10413000805202624268C3690D6823F4E64343EA91
:1041400005238D6824F4005444EA0534084DA84240
:1041500002D0084DA84204D14D6922F4804242EABF
:1041600085124260C36149680164046230BD000089
:10417000000001400004014010B5036A046A24F005
:1041800001040462846924F0F00444EA021423F078
:104190000A020A438461026210BD10B5036A046A10
:1041A00024F010040462846923F0A00324F4704412
:1041B00044EA023243EA01118261016210BD00004B
:1041C0000148FEF75FBE000008D3002010B5044888
:1041D000FEF758FEBDE810400148FCF785BD000021
:1041E00050D3002010B5806B0021C185FEF748FE3A
:1041F00010BD70B5846B2068406994F84110C0F31D
:10420000C0100025212904D118B1E584204600F012
:10421000B4F82068406994F84210C0F38010222955
:1042200004D118B1E585204600F080F8606C40F0BC
:10423000100060642046FEF723FE70BD10B50146F5
:10424000806B096809684FF00002C9052ED4C28549
:1042500001680C3151E8003F23F4807341E80034D9
:10426000002CF5D10168143151E8003F23F001031F
:1042700041E80034002CF5D10168143151E8003FC9
:1042800023F0400341E80034002CF5D1202180F8D0
:104290004210016B012909D101680C3151E8003F3E
:1042A00023F0100341E80034002CF5D14263016B88
:1042B000012902D0FFF7A8F810BD818DFEF7A7FDF8
:1042C00010BD10B5806B01214163016B012902D043
:1042D000FFF79BF810BD818D4908FEF798FD10BDD2
:1042E00010B50146806B09680968C90516D400211C
:1042F000C1840168143151E8002F22F0800241E8A6
:104300000023002BF5D101680C3151E8002F42F059
:10431000400241E80023002BF5D110BDFFF708F95A
:1043200010BD10B5806BFFF704F910BD01680C31AA
:1043300051E8002F22F4907241E80023002BF5D1C0
:104340000168143151E8002F22F0010241E80023F6
:10435000002BF5D1016B012909D101680C3151E81D
:10436000002F22F0100241E80023002BF5D120217C
:1043700080F8421000210163704701680C3151E858
:10438000002F22F0C00241E80023002BF5D12021AC
:1043900080F84110704708B590F84210222901D0EA
:1043A000022008BD82684FF480539A4201D101690E
:1043B00021B1816A9A421BD04AB10AE00268816A3F
:1043C0005268C2F308020A80816A891C08E0026907
:1043D00072B10268526802F07F020A70816A491C59
:1043E0008162C18D491E0904090CC18503D01BE0FF
:1043F00002685268F1E70168CA6822F02002CA60C8
:104400000168CA6822F48072CA6001684A6922F0B1
:1044100001024A61202180F8421000214163026BB1
:10442000012A03D0FEF7F0FF002008BD01630168F8
:104430000C3151E8002F22F0100241E80023002B3C
:10444000F5D101680A68D20602D50A684968009168
:10445000818DFEF7DCFCE7E770B504460068016972
:10446000E26821F44051114301612169A068E269C9
:1044700008436169114308432168CA6849F20C6323
:104480009A430243CA6020684169A26921F44071DD
:104490001143416131492068884202D03049884245
:1044A00002D1FDF703FE01E0FDF7F0FDE269002314
:1044B000192164253226B2F5004F626828D0A0FB8E
:1044C0000101930F9200FBF798FF0146B0FBF5F056
:1044D0006FF01802504301EB800006EB0010B0FBB8
:1044E000F5F000F0F002B1FBF5F002EB0012B1FBC9
:1044F000F5F06FF01803584301EB800006EB001055
:10450000B0FBF5F000F00F0021681044886070BD2A
:10451000A0FB010192185B41FBF76FFF0146B0FB66
:10452000F5F00201B1FBF5F06FF01803584301EB11
:10453000800006EBC000B0FBF5F000F0F80002EBE5
:104540004002B1FBF5F0584301EB800006EBC000E0
:10455000B0FBF5F000F00700D6E7000000100140C6
:104560000014014038B5816204468285002013465C
:104570006064222284F84220E56B1F4AEA63E56BFF
:104580001E4A2A64E56B1E4AEA64E26B10650A461D
:104590002168E06B091DFDF779FA30B110206064E5
:1045A000202084F84200012038BD2068016840685E
:1045B0000090206948B120680C3050E8001F41F499
:1045C000807140E80012002AF5D12068143050E8CC
:1045D000001F41F0010140E80012002AF5D12068D7
:1045E000143050E8001F41F0400140E80012002A5A
:1045F000F5D1002038BD00003D420008C34200084C
:10460000F34100082DE9F843984617460D46044645
:10461000089E24E0701C22D0FDF7A2FBA0EB08004E
:10462000B0421AD8CEB12068C168490717D5802D8D
:1046300015D0402D13D00168C94309070FD4016874
:104640000025406800902046FFF770FE0820606457
:1046500084F840500120BDE8F8830320FBE7206880
:10466000006835EA000004D00020B842D2D0002013
:10467000F1E70120F9E7000010B50448FEF702FC5D
:10468000BDE810400148FCF72FBB000098D3002084
:10469000FEE7000090F8351005290AD2DFE801F0A6
:1046A000030A0C0E10000748002101604160816080
:1046B000C160704700F008B800F0F8BA00F06EBDB5
:1046C00000F002BACCD8002002484FF49671016085
:1046D00041607047CCD8002070B54820FBF75EFEE3
:1046E00005464821FBF732FF00242046FCF73AFB41
:1046F00045F82400FFF768FA05EB84063061FFF700
:1047000063FA3062FEF718FF641CE4B22863042CDD
:10471000EBD302480560284670BD000000CF0020A2
:10472000014800210160704700CF002010B5064C01
:10473000206890F83400002805D0FEF771FF21684A
:10474000002081F8340010BD00CF00202DE9F04199
:1047500098462DED028B1746B0EE408A0C46064671
:10476000012533E096F83600002831D05FF00000D4
:1047700004FB00F107EB810101EB850191ED001ACB
:1047800056F82010401CC0B2D1ED040A042870EE87
:10479000C10AC1ED050AEBD308EB850090ED000AD4
:1047A00008EB840000EB850086ED0F0A90ED000A0F
:1047B00086ED100A9FED080A28EE000ABCEEC00A3A
:1047C00010EE100A02F008FD6D1CADB2A542C9D36F
:1047D000BDEC028BBDE8F08100007A442DE9F04188
:1047E000044601780123B44850290AD161786F2921
:1047F0007DD1A17873297AD16521E170016881F8B2
:1048000034302178432911D1617854296FD1A178AE
:104810004D296CD1E1786F2969D12179642966D15C
:104820006179652963D1016881F8353021780326E3
:1048300000224FF0020C04279FEDA00ADFEDA00A32
:104840009FEDA01A53290ED161784D2933D1A1785B
:104850006F294CD1E178642949D12179652946D164
:10486000016881F835C02178542921D161784D291A
:104870003DD1A1786F293AD1E178642937D12179E6
:10488000652934D10568002185F8356055F821E0A7
:10489000491CC9B2DEED001A0429F8EEE11A61EEF6
:1048A000801A61EEA01A81EE812A8EED042AEDD3E2
:1048B000217853292CD16178432918D1A1784D2929
:1048C00015D1E1786F2912D1217964290FD161794D
:1048D00065290CD10568002185F8357085F84420DC
:1048E00085F8382085F8452055F821E000E090E073
:1048F000DEED001A491CC9B2F8EEE11A042961EE96
:10490000801A61EEA01A81EE812A8EED042AEBD383
:10491000217823294FD16178532923D1A1784D29BA
:1049200077D1E1782579ADB1012D72D1B4F8055078
:104930006DBA00EE105AB8EE400AB1EE400A0568B2
:1049400005EB810151F8041C81ED060A2178232929
:1049500008D030E0B4F805506DBA00EE105AB8EE49
:10496000400AECE76178542953D1A178732926D005
:10497000722931D06C293DD070294BD00522632992
:1049800056D0662968D0732943D1E178632940D194
:1049900021796D293DD161796F293AD1A1796429B5
:1049A00037D1E179652934D100680A2100F8361F32
:1049B0000621C373C170207847285CD066E0E17897
:1049C0007429E2D121796F2973D16179702970D16D
:1049D000006800F8362F4CE0E178692969D1217927
:1049E000732966D16179652963D1006800F8363F83
:1049F000C370E0E7E17869295BD121796E2958D14C
:104A00006179652955D1006880F8366080F839C031
:104A1000D1E74EE0E1786F294BD121796C2948D15B
:104A20006179792945D1006800F8367FC670C2E700
:104A3000E17869293DD1217972293AD161796329D7
:104A400037D1A1796C2934D1E179652931D1006858
:104A500000F8362FC770AEE7E178612929D12179B6
:104A60006C2926D161796C2923D10068092100F8CD
:104A7000361FC2709FE7607872281AD1A07861282B
:104A800017D1E078622814D1FCF772FA20784C280C
:104A90000FD160786F280CD1A0786F2809D1E07809
:104AA000732806D12079652803D1BDE8F041FCF7D1
:104AB00067BABDE8F081000000CF00200000B443D9
:104AC00000000039000010422DE9F041284F064651
:104AD0002DED048B00249FED238ADFED238A9FEDCB
:104AE000239A00BF56F8240006EB840590ED050AD2
:104AF000286A80ED090A56F8240090ED000A286A19
:104B0000B8EEC00A20EE080A20EE280AC0EE090A14
:104B1000C0ED080A286AFEF7E1FF286A90ED0A0A4C
:104B2000286980ED090A56F82400B0F9080000EE63
:104B3000100A2869B8EEC00A80ED080A2869FEF755
:104B4000CDFF286990ED0A0ABDEEC00A10EE100AEA
:104B500047F82400641CE4B2042CC3D3BDEC048BDE
:104B6000BDE8F0810000B4430000003900001042AD
:104B7000CCD80020074808B5818909B20091018985
:104B80000BB2818800880AB201B20348FCF758F8DA
:104B900008BD0000CCD80020D0D1002010B50446BC
:104BA0002DED048B0021B1EE041A9FED3D8ADFED5F
:104BB0003B8A0069F0EE481AB0EE682AF0EE480A27
:104BC000B7EE000AFFF70AF89FED369ADFED369A46
:104BD0000021B0EE682AF0EE491AB2EE0E1AF0EE9D
:104BE000000AB0EE690A206AFEF7F8FF0021B0EE75
:104BF000682AF0EE481AB1EE041AF0EE480AB7EE51
:104C0000000A6069FEF7EAFF0021B0EE682AF0EEC4
:104C1000491AB2EE0E1AF0EE000AB0EE690A606AA6
:104C2000FEF7DCFF0021B0EE682AF0EE481AB1EE84
:104C3000041AF0EE480AB7EE000AA069FEF7CEFFAC
:104C40000021B0EE682AF0EE491AB2EE0E1AF0EE2C
:104C5000000AB0EE690AA06AFEF7C0FF0021B0EEBC
:104C6000682AF0EE481AB1EE041AF0EE480AB7EEE0
:104C7000000AE069FEF7B2FFE06AB0EE682AF0EEE3
:104C8000491AB0EE690ABDEC048B0021B2EE0E1A8F
:104C9000BDE81040F0EE000AFEF7A0BF000080461D
:104CA000000000000000FA440000F0422DE9F0414D
:104CB000144F0646002400BF56F8240006EB840576
:104CC00090ED060A286980ED090A56F82400B0F92B
:104CD000080000EE100A2869B8EEC00A80ED080A44
:104CE0002869FEF7FBFE286990ED0A0ABDEEC00AAE
:104CF00010EE100A47F82400641CE4B2042CDBD345
:104D0000BDE8F081CCD8002070B5044690F837009B
:104D10000025092802D084F8385003E094F83800C0
:104D2000002829D100209FED151ADFED151A9FEDFF
:104D3000150A00BF54F82010401CC0B2D1ED000A83
:104D40000428F8EEE00A60EE810A60EEA10A80EE27
:104D5000802A81ED042AEDD30B4B0C4A9FED0C0AFF
:104D600051212046FFF7F2FC012084F8380084F836
:104D70003950092084F8370070BD00000000B443AA
:104D80000000003900001042D842002030290020E5
:104D9000CDCCCC3D90F837100022022902D080F80B
:104DA000382003E090F83810002921D100219FED30
:104DB000111ADFED111A9FED110A00BF50F82130D2
:104DC000491CC9B2D3ED000A0429F8EEE00A60EEEE
:104DD000810A60EEA10A80EE802A83ED042AEDD3D9
:104DE000012180F8381080F83920022180F837102E
:104DF000704700000000B44300000039000010427A
:104E000070B5044690F837000025032802D084F8D6
:104E1000385003E094F83800002829D100209FED95
:104E2000151ADFED151A9FED150A00BF54F8201072
:104E3000401CC0B2D1ED000A0428F8EEE00A60EE92
:104E4000810A60EEA10A80EE802A81ED042AEDD36A
:104E50000B4B0C4A9FED0C0A3D212046FFF776FCD8
:104E6000012084F8380084F83950032084F8370092
:104E700070BD00000000B443000000390000104283
:104E8000A02E0020D0050020CDCCCC3D70B504462E
:104E900090F837000025042802D084F8385003E049
:104EA00094F83800002829D100209FED151ADFED75
:104EB000151A9FED150A00BF54F82010401CC0B20F
:104EC000D1ED000A0428F8EEE00A60EE810A60EEF7
:104ED000A10A80EE802A81ED042AEDD30B4B0C4A07
:104EE0009FED0C0A79212046FFF730FC012084F861
:104EF000380084F83950042084F8370070BD000071
:104F00000000B443000000390000104210330020BC
:104F1000A0090020CDCCCC3D70B5044690F83700F8
:104F20000025052802D084F8385003E094F83800B2
:104F3000002829D100209FED151ADFED151A9FEDED
:104F4000150A00BF54F82010401CC0B2D1ED000A71
:104F50000428F8EEE00A60EE810A60EEA10A80EE15
:104F6000802A81ED042AEDD30B4B0C4A9FED0C0AED
:104F70003D212046FFF7EAFB012084F8380084F841
:104F80003950052084F8370070BD00000000B4439C
:104F90000000003900001042D836002030110020F7
:104FA000CDCCCC3D90F837100022062902D080F8F5
:104FB000382003E090F83810002921D100219FED1E
:104FC000111ADFED111A9FED110A00BF50F82130C0
:104FD000491CC9B2D3ED000A0429F8EEE00A60EEDC
:104FE000810A60EEA10A80EE802A83ED042AEDD3C7
:104FF000012180F8381080F83920062180F8371018
:10500000704700000000B443000000390000104267
:1050100010B5044690F83800002827D19FED140AF7
:10502000DFED140A9FED141A54F82010401CC0B292
:10503000D1ED001A0428F8EEE11A61EE801A61EE53
:10504000A01A81EE812A81ED042AEDD30B4B0C4A84
:105050009FED0C0A51212046FFF778FB012084F8D0
:105060003800002184F8391084F8370010BD0000A2
:105070000000B443000000390000104288300020D6
:10508000C0000020CDCCCC3D70B5044690F8370070
:1050900000250A2837D194F84500012833D094F828
:1050A000380000283DD10020DFED1E0A9FED1E1ABA
:1050B0009FED1E0A54F82010401CC0B2D1ED001A1A
:1050C0000428F8EEE11A61EEA01A61EE811A81EE71
:1050D000802A81ED042AEDD394F8440014499FED11
:1050E000150A51F82030A1F5B95151F820203D2181
:1050F0002046FFF72BFB94F84400032806D2401CFF
:1051000084F8440004E084F83850CCE784F8445034
:10511000012084F8380084F839500A2004F8370F49
:10512000A57370BD0000B4430000003900001042B8
:1051300060450020CDCCCC3D90F83710C1B19FED3B
:10514000140ADFED140A9FED141A002150F82120F3
:10515000491CC9B2D2ED001A0429F8EEE11A61EE39
:10516000801A61EEA01A81EE812A82ED042AEDD325
:105170005FF0000150F82120491CC9B292ED040AE9
:10518000042982ED050AF5D3002180F83710704715
:105190000000B44300000039000010422DE9F04146
:1051A000284F06462DED048B00249FED238ADFED6A
:1051B000238A9FED239A00BF56F8240006EB84054E
:1051C00090ED050A286A80ED090A56F8240090ED52
:1051D000000A286AB8EEC00A20EE080A20EE280A63
:1051E000C0EE090AC0ED080A286AFEF777FC286AB3
:1051F00090ED0A0A286980ED090A56F82400B0F9F2
:10520000080000EE100A2869B8EEC00A80ED080A0E
:105210002869FEF763FC286990ED0A0ABDEEC00A12
:1052200010EE100A47F82400641CE4B2042CC3D327
:10523000BDEC048BBDE8F0810000B44300000039F0
:1052400000001042CCD8002003B40198410000981F
:1052500050EAC12018BF04204A0D18BF40F00100D9
:1052600040F2FF72B2EB515F08BF40F0020001282C
:1052700008BF052002B070470907090E002804DBAB
:1052800000F1E02080F80014704700F00F0000F1FA
:10529000E02080F8141D704770B5C1482DED020B59
:1052A0002DED0E8B82B0119D25F000449FEDBEDBED
:1052B0009FEDBFEB84423EDBA4F140511098A1F179
:1052C0007F6108430FD0BC48844202DC28D110988B
:1052D00030B39DED100B02B0BDEC0E8B02B0BDE8FB
:1052E000704000F0B8BC9DED100B53EC1D2B51EC41
:1052F000100B02F0C3FC9DED100B41EC180B53ECAE
:105300001E2B51EC100B02F0B9FC53EC182B02F0E1
:1053100019FA41EC100B02B0BDEC0E8B02B070BD5F
:105320000120FBF7BBF902B0BDEC0E8B02B0BDE86B
:10533000704000F0A5BCA1489FEDA18B844256DAD5
:105340009DED100BB4F1795F0ADA51EC100BFFF709
:105350007BFF042808BF00F0A3FC9DED100BDAE7EB
:1053600053EC102B51EC100B02F088FC41EC190BA4
:1053700095480621B0EE490AF0EE690A784400F03B
:10538000EEFB53EC192B51EC100B02F077FC41ECC7
:105390001A0B8E48B0EE490AF0EE690A04217844EF
:1053A00000F0DDFB53EC192B51EC100B02F066FC06
:1053B00053EC182B02F0C6F941EC100B51EC1A0B10
:1053C00053EC102B02F072FACDE900019DED000BB9
:1053D00053EC102B9DED100B51EC100B02F04EFC1A
:1053E0009DED101B53EC112B02F0ACF9D2E09DEDBA
:1053F000100B51EC100B00F0A5FC53EC182B02F035
:1054000071FD9FED730BCDE9000153EC102B9DED69
:10541000000B51EC100B02F031FC41EC190B6E4803
:105420000621B0EE490AF0EE690A784400F097FBD5
:1054300053EC192B51EC100B02F020FC41EC1B0B30
:105440006648B0EE490AF0EE690A0421784400F09B
:1054500086FB53EC192B51EC100B02F00FFC53ECB4
:10546000182B02F06FF941EC1C0B51EC190B01F0F9
:10547000B5FD41EC180B5A489FED5BABA04222DC16
:1054800053EC1C2B51EC1B0B02F010FACDE9000180
:105490009DED000B51EC180B53EC102B02F0EEFBC2
:1054A00053EC182B02F04EF953EC1A2B02F0E6FBEA
:1054B00053EC1D2B02F0EEFD53EC1E2B02F012FDFF
:1054C00041EC100B5FE08DED008B002000909DED16
:1054D000000B51EC180B53EC102B02F033F99DED3F
:1054E000000B41EC1E0B53EC102B51EC100B02F097
:1054F000C5FB53EC192B02F0F5FC53EC1E2B02F00C
:10550000D5F941EC190B53EC1C2B51EC1B0B02F0A1
:10551000CDF941EC1B0B53EC1A2B51EC190B02F09B
:10552000ADFB53EC1D2B02F0DDFC41EC190B53ECF1
:105530001A2B51EC180B02F0A1FB53EC1B2B02F0C1
:105540009DFB53EC192B02F0A5FD9DED000B41ECEA
:10555000180B53EC1A2B51EC100B02F08FFB9FED44
:10556000249B53EC192B02F0BDFC41EC100B51ECC9
:10557000180B53EC102B02F08DFD53EC192B02F09D
:10558000B1FC41EC100B002D3FF7C5AE51EC100BF8
:1055900002F09AF841EC100BBDE60000000000009C
:1055A0000000F03F00000000075C143326A6913C89
:1055B000182D4454FB21F93F0000F07F0000E03F2C
:1055C000000000000000F03FC0300000CE300000BE
:1055D000000000000000E03F12300000203000001A
:1055E0003333EF3F000000000000000000000040E7
:1055F000182D4454FB21E93F70B59B482DED020B5B
:105600002DED068B079D25F00044A04218DC97483D
:10561000844202DC0AD1069840B19DED060BBDEC38
:10562000068B02B0BDE8704000F015BB002DCCBF6A
:105630009FED8F0B9FED900BBDEC068B02B070BD04
:105640008F48A04215DD8F48A042D8BF4FF0FF34ED
:1056500058DD9DED060B51EC100BFFF7F5FD04280E
:1056600008BF00F01DFB9DED060BBDEC068B02B0E4
:1056700070BD9DED060B51EC100B00F063FBCDE906
:10568000060181489FED828BA0423CDD8248A0420A
:105690001FDD00249FED82AB9DED060B53EC1A2B12
:1056A00051EC100B02F04EF89DED060B41EC190B7E
:1056B00053EC1A2B51EC100B02F0E0FA53EC182BC0
:1056C00002F0E8FC53EC192B02F0F0F8CDE90601EA
:1056D00049E09DED060B012453EC182B51EC100B07
:1056E00002F030F89DED060B41EC190B53EC182B32
:1056F00051EC100B02F0CEFC53EC192B02F0D6F853
:10570000CDE906012FE06848A0421FDD02249FED8D
:10571000689B9DED060B53EC192B51EC100B02F01E
:10572000ADFA53EC182B02F00DF89DED060B41EC91
:10573000180B53EC192B51EC100B02F0ABFC53EC93
:10574000182B02F0B3F8CDE906010CE09DED060B35
:10575000032453EC102B9FED580B51EC100B02F06F
:10576000A5F8CDE906019DED060B53EC102B51EC8D
:10577000100B02F083FA41EC180B53EC182B02F0DB
:105780007DFA41EC190B4E480621B0EE490AF0EEC5
:10579000690A784400F0E3F953EC182B51EC100B34
:1057A00002F06CFA41EC180B4648B0EE490AF0EEF4
:1057B000690A0521784400F0D2F953EC192B51EC19
:1057C000100B02F05BFA41EC100B51EC180B53EC90
:1057D000102B002C0EDA01F0B5FF9DED061B53ECEB
:1057E000112B02F04BFA9DED061B53EC112B02F02E
:1057F00079FB35E001F0A6FF9DED061B53EC112B64
:1058000002F03CFA41EC100B2F48784400EBC40046
:1058100090ED001B51EC100B53EC112B02F03AFCF5
:105820009DED061B53EC112B02F034FC41EC100BE8
:105830002648784400EBC40090ED001B51EC100B9F
:1058400053EC112B02F04EFB41EC100B002DA2BFCC
:10585000BDEC068B02B070BD51EC100B01F034FFB3
:1058600041EC100B01E70000000010440000F07F45
:10587000182D4454FB21F93F182D4454FB21F9BF46
:105880000000DC3F0000203E0000F33F000000006D
:10589000000000000000F03F0000E63F00000000B4
:1058A00000000000000000400080034000000000F5
:1058B000000000000000F83F000000000000F0BF02
:1058C000622D0000182D0000A22C00005A2C0000B0
:1058D00070B56F4E2DED040B2DED048B82B0DDF80D
:1058E00024C0DDE907235C422CF000411C4341EA5F
:1058F000D474069D22F00040B44205D86C422C437B
:1059000040EAD474B4420BD99DED081B9DED060B03
:1059100002B0BDEC048B04B0BDE8704000F0A5B946
:10592000ACF14054A4F17F641C430BD0022404EA80
:10593000AC7444EAD27405439FED578B9FED582B0E
:1059400007D015E09DED060B51EC100B00F0B8F9F7
:1059500042E0002C11BF012C9DED060B02B0BDEC06
:10596000048B04BF04B070BD022C38D0032C3BD094
:105970000B439FED4D1B9FED4E0B0AD0B14218D14A
:10598000B04209D121F0804120F080400991079078
:105990000FE0002A15DA10E0474B7B44002C08BFCB
:1059A00093ED000B0DD0012C10D0022C17D0032C3E
:1059B0001AD0B0421DD1002A03DAB0EE410AF0EE4F
:1059C000610A02B0BDEC048B04B070BD93ED000B16
:1059D00051EC100B01F078FE41EC100BF1E7B0EE4A
:1059E000480AF0EE680AECE7B0EE420AF0EE620A0E
:1059F000E7E7401A00159FED329B3C28C8BF8DEDAC
:105A0000000B17DCBCF1000FBCBF10F13C0F8DED9B
:105A1000009B0FDB9DED080B53EC102B9DED060B4F
:105A200051EC100B01F042FF00F08CF900F048F946
:105A3000CDE90001B4B1012C10D0022C9FED220B56
:105A400053EC102B9DED000B51EC100B19D002F014
:105A500021FB53EC182B02F01DFBBDE7019880F0F1
:105A6000004001909DED000B53EC192B51EC100BF5
:105A700002F074F804BF0220FAF710FE9DED000B4F
:105A80009FE702F007FB53EC182B02F02BFAA3E779
:105A90000000F07F00000000182D4454FB21094055
:105AA000182D4454FB2109C0182D4454FB21F9BF83
:105AB000182D4454FB21F93F8A2B00000000000000
:105AC0000000000000000000075C143326A6A13C83
:105AD0002DED020B019820F0004001909DED000B90
